:02000002B0004C
:1040000000400B00BC630B00000006000D00050221
:084010000401A50F00000000EF
:044018004C580B00F5
:10401C0009480A49884208B505D0094A824202D0AB
:10402C00121A01F05AFB0748074A0021121A01F034
:10403C0062FB014808BD00BFBCE5032028630B00F0
:10404C0028E6032028E60320EDE7032070B5074E91
:10405C00074C01F01BFAA41BA4080025AC4200D1AC
:10406C0070BD56F8043B98470135F7E7D4620B0056
:10407C00F8620B0000F016B808B500F021F8BDE8A6
:10408C00084001F0BBB900F0DFBC00F0DDBC00F073
:10409C00E3BC0078B0FA80F040097047012303704C
:1040AC007047000008B5054800231A4619464068B9
:1040BC0000F092FCBDE8084000F08CBAA0E60320AA
:1040CC004CF2503000F0F0BC70B504460D46143084
:1040DC000E49164601F041F80C4904F1240001F098
:1040EC003CF801220023C4E90D234FF0FF33E363B6
:1040FC0040F20713A4F8423084F8405084F8416031
:10410C00E800FFF7C2FF2060204670BDD0620B00B4
:10411C0090F84330032B05D8DFE803F002050912B1
:10412C0000238363704790F84030DB00F9E7C269E5
:10413C0090F84230534390F84020A3EBC203F0E7D1
:10414C0090F84230C26953435B42EAE7002310B552
:10415C001C4690F840105A1CDBB2B3EBC10F03DACB
:10416C000168CC541346F4E710BD10B50446143066
:10417C0001F007F8002363632046BDE81040FFF709
:10418C00C7BF243000F0FDBF38B5044690F842108C
:10419C0094F84020436BC069D200013B00FB012224
:1041AC0093FBF2F102FB113363638BB9E36A7BB1CE
:1041BC0004F12405294604F1140000F0E2FF28461E
:1041CC00044900F0EDFF2046BDE83840FFF7A0BFE2
:1041DC0038BD00BFD0620B00002906DB90F84030E0
:1041EC00B1EBC30FBCBF03685A5470472DE9F843B9
:1041FC00DFF854800446002500F11407E369AB4254
:10420C001FD92946384600F0E6FF00B208EBC0097A
:10421C00002694F84210636B05FB01611944A36BF3
:10422C00C91809D494F84030B1EBC30F04DA19F86B
:10423C0006202046FFF7D0FF0136082EE9D10135C4
:10424C00DCE7BDE8F88300BF60580B0013B50B4CDE
:10425C002178BFF35B8F11F001010BD12046019146
:10426C00FFF717FF019928B1054800F085FE20469D
:10427C00FFF714FF024802B010BD00BF28E6032070
:10428C002CE603202DE9F341051D04460E4690460D
:10429C00002190F84020019228461F4601F02BFA8D
:1042AC00019A002104F10C0001F025FAA1196FF01C
:1042BC00030681F804800F7394F84100002101F08B
:1042CC0066F9361B94F8402073199A420FDD15F8E5
:1042DC00011B0191FFF7BAFF019900F0EDFEE9799E
:1042EC000191FFF7B3FF019900F0E6FEEAE794F8BD
:1042FC004100012102B0BDE8F04101F048B937B5E9
:10430C000121044690F8410001F030F9FFF79EFFBF
:10431C0000F03CFEFFF79AFF002100F04BFEFFF788
:10432C0095FF302100F0A2FE002594F84030E9B250
:10433C008B421FD907230B2220460191FFF7A2FFC6
:10434C000199002309222046FFF79CFF01990023C5
:10435C000F222046FFF796FF019900230A222046E0
:10436C00FFF790FF019901230C222046FFF78AFFEB
:10437C000135DAE703B030BD38B505460023D9B2B4
:10438C005C1C95F84030B1EBC30F0ADA2B6801F0D6
:10439C0007025B5C0132C9082846FFF773FF23460E
:1043AC00EDE738BD1FB50E4C2046FFF7A8FF0D49B1
:1043BC00684600F0D2FE69462046FFF7D6FE6846F6
:1043CC0000F080FE0849684600F0C7FE69462046AA
:1043DC00FFF7D7FE684600F075FE04B010BD00BFB5
:1043EC0034E6032060600B0077600B007FB5114D45
:1043FC00114E00240F48FFF7A9FE0E48FFF7C4FE2C
:10440C000C48FFF7F3FE0B48FFF7B6FF01343220E0
:10441C0000F04AFBB4F5C87FECD13146684600F099
:10442C009CFE28466946FFF7ACFE684600F04AFE43
:10443C00E0E700BF34E6032083600B0002480E2245
:10444C000621FFF741BE00BF34E6032008B5202249
:10445C0000230821094800F013F9082000F0F4FAB1
:10446C00074B1860074B08480022C3E9002200F0F4
:10447C00E7F8064B01221A7008BD00BF78E603204E
:10448C0094E603208CE6032088E6032084E60320D0
:10449C002DE9F74F1B4F1C481C4E0068DFF870804D
:1044AC0000234FF0FF32694600F0FAF8306800F054
:1044BC00CFF80024D8F80030A3421EDDDFF854A05A
:1044CC00DFF854B04FEA840900255AF82430AB4287
:1044DC0011DD3B6853F809305A5D9DF804309A425F
:1044EC0007D15BF8240000234FF0FF32694600F03F
:1044FC00CFF80135E9E70134DCE7306800F0B0F8BB
:10450C00C9E700BF94E6032078E6032088E6032081
:10451C0098E603208CE603207CE6032010B50123EB
:10452C0003748368044643B1C068984701236374DD
:10453C000020BDE8104000F0BBB800680028F5D0A2
:10454C0083680BB901F0C0F8C368EEE72DE9F341BD
:10455C0004460E4614201D4990461F4601F0B0F843
:10456C0030B10025C0E90055C0E902550574457409
:10457C00206098B1099B9DF82020C0E90287314644
:10458C00CDE90003124B043000F052F830B9236827
:10459C001B7CBBB9012000F09BF8F8E726680023D0
:1045AC0023607EB135684DB1AB681BB1032229463F
:1045BC002846984710212846FFF769FD14213046FC
:1045CC00FFF765FD204602B0BDE8F08160620B008C
:1045DC0029450B00F0B5154D0FCD93B006AC0FC4AB
:1045EC000FCD0FC495E80F0084E80F00FFF7DAFE3B
:1045FC00FFF72CFF06AC00262268E168A368059241
:10460C000420D4E9047504910393FFF73CFD38B101
:10461C00EDB2DDE90412039B01970095FFF796FFBD
:10462C0018340EB113B0F0BD0126E5E7B8600B00ED
:10463C0008B5024B1B685B68019308BD4802030078
:10464C0008B5024B1B681B6B019308BD48020300A5
:10465C0008B5024B1B689B6B019308BD4802030015
:10466C0008B5024B1B681B6C019308BD4802030084
:10467C0008B5024B1B685B6C019308BD4802030034
:10468C0008B5024B1B68DB6D019308BD48020300A3
:10469C0008B5024B1B685B6E019308BD4802030012
:1046AC0008B5024B1B689B6E019308BD48020300C2
:1046BC0008B5024B1B68DB6E019308BD4802030072
:1046CC0008B5024B1B685B68019308BD1802030018
:1046DC0008B5024B1B689B68019308BD18020300C8
:1046EC0008B5024B1B685B69019308BD18020300F7
:1046FC0008B5024B1B689B68019308BD2C02030094
:10470C0008B5024B1B68DB68019308BD2C02030043
:10471C0008B5024B1B681B69019308BD2C020300F2
:10472C0008B5024B1B681B6A019308BD28020300E5
:10473C0008B5024B1B685B6A019308BD2802030095
:10474C0008B5024B1B689B6A019308BD2802030045
:10475C0008B5024B1B68DB6A019308BD28020300F5
:10476C0008B5024B1B681B6B019308BD28020300A4
:10477C0008B5024B1B685B6B019308BD2802030054
:10478C0008B5024B1B681B6C019308BD2802030083
:10479C0008B5024B1B685B69019308BD64020300FA
:1047AC0008B5024B1B689B68019308BD68020300A7
:1047BC0008B5024B1B68DB68019308BD6802030057
:1047CC0008B5024B1B681B68019308BD300203003F
:1047DC0008B5024B1B68DB68019308BD300203006F
:1047EC0008B5024B1B681B69019308BD300203001E
:1047FC0008B5024B1B685B69019308BD30020300CE
:10480C0008B5024B1B68DB69019308BD300203003D
:10481C0008B5024B1B681B6A019308BD30020300EC
:10482C0008B5024B1B685B6A019308BD300203009C
:10483C0008B5024B1B681B6C019308BD30020300CA
:10484C0008B5024B1B685B6C019308BD300203007A
:10485C0008B5024B1B68DB68019308BD3C020300E2
:10486C0008B5024B1B681B69019308BD3C02030091
:10487C0008B5024B1B685B69019308BD3C02030041
:10488C0008B5024B1B689B69019308BD3C020300F1
:10489C0008B5024B1B68DB69019308BD3C020300A1
:1048AC0008B5024B1B681B6A019308BD3C02030050
:1048BC0008B5024B1B689B6A019308BD3C020300C0
:1048CC0008B5024B1B681B6C019308BD3C0203002E
:1048DC0008B5024B1B681B68019308BD4C02030012
:1048EC0008B5024B1B681B69019308BD4C02030001
:1048FC0008B5024B1B685B69019308BD4C020300B1
:10490C0008B5024B1B689B69019308BD4C02030060
:10491C0008B5024B1B68DB69019308BD4C02030010
:10492C0008B5024B1B681B6A019308BD4C020300BF
:10493C0008B5024B1B685B68019308BD200203009D
:10494C0008B5024B1B685B69019308BD200203008C
:10495C0008B5034B1B68D3F88830019308BD0000E1
:10496C002002030008B5034B1B68D3F89430019365
:10497C0008BD00002002030008B5024B1B68DB6B6E
:10498C00019308BD4402030008B5024B1B685B6829
:10499C00019308BD4002030008B5024B1B689B68DD
:1049AC00019308BD4002030008B5024B1B68DB688D
:1049BC00019308BD4002030008B5024B1B681B693C
:1049CC00019308BD4002030008B5024B1B685B69EC
:1049DC00019308BD4002030008B5024B1B689B699C
:1049EC00019308BD4002030008B5024B1B68DB694C
:1049FC00019308BD4002030008B5024B1B681B6AFB
:104A0C00019308BD4002030008B5024B1B681B6BE9
:104A1C00019308BD4002030008B5024B1B685B6B99
:104A2C00019308BD4002030008B5024B1B681B6CC8
:104A3C00019308BD4002030008B5024B1B685B6C78
:104A4C00019308BD4002030008B5024B1B681B68AC
:104A5C00019308BD1C02030008B5024B1B685B6880
:104A6C00019308BD1C02030008B5024B1B689B6830
:104A7C00019308BD1C02030008B5024B1B68DB6ADE
:104A8C00019308BD1C02030008B5024B1B681B6C8C
:104A9C00019308BD1C02030008B5024B1B685B6C3C
:104AAC00019308BD1C0203000021FFF749BF000061
:104ABC00024800230360FFF7DBBD00BF9CE6032028
:104ACC00002240681146FFF777BF0022406811466C
:104ADC00FFF792BF002240681146FFF79DBF406868
:104AEC000022FFF791BF4068002281F00101FFF71F
:104AFC007BBF002340681A461946FFF76DBF0023A1
:104B0C0040681A461946FFF75FBF002240681146FD
:104B1C00FFF742BF406800220221FFF745BF002388
:104B2C0040681A46FFF730BF084B10B528242246C0
:104B3C001846002100F0DFFD054B04804FF0FF32DA
:104B4C00426004225A60034A1A6010BDA8E6032092
:104B5C00A0E60320F0600B00002240681146FFF72E
:104B6C004BBF002240681146FFF756BF4068002239
:104B7C00FFF74ABF4068002281F00101FFF734BF04
:104B8C00002340681A461946FFF726BF00234068E9
:104B9C001A461946FFF718BF002240681146FFF766
:104BAC000BBF002240681146FFF7F6BE406800229A
:104BBC000221FFF7F9BE002340681A46FFF7E4BE56
:104BCC00024B03225A60024A1A607047D0E6032057
:104BDC002C610B007047F8B5064615460C468F182D
:104BEC00BC4206D0336814F8011B9B6830469847CA
:104BFC00F6E72846F8BD007C0022FFF791BD007C4B
:104C0C000021FFF795BD007C0021FFF799BD007CCA
:104C1C000021FFF79DBD007C0021FFF7A1BD10B561
:104C2C0014210446FFF733FA204610BD38B504466C
:104C3C0015464FF47A730022C4E90123094B217401
:104C4C00084623602946FFF79BFDBF3008D16B69EE
:104C5C00DB0705D56868FFF7FFFEE868FFF7FCFE89
:104C6C00204638BD68610B00704710B5182104460A
:104C7C00FFF70DFA204610BDF0B5037D062B8DB065
:104C8C000E4600F104074FF0000412D000F10805A5
:104C9C0015F8011D0A22304600F043F9AF420444D6
:104CAC0019D0002CF4D02E21304600F037F90444F2
:104CBC00EEE72F236A4639460A208DF80040FFF7AD
:104CCC0067FD684600F04EFD33680246DB686946B6
:104CDC0030469847044620460DB0F0BD10B5054B44
:104CEC000446112240F8043B002100F004FD20464C
:104CFC0010BD00BF90610B000346074A10B543F886
:104D0C00042B01F1100251F8044B43F8044B91426F
:104D1C00F9D10A781A7010BD90610B0010B59DF88E
:104D2C00084044EA032343EA024242EA01610423B5
:104D3C004160037510BD000007B5064B0360CB78CE
:104D4C0000938B784A780978FFF7E8FF03B05DF899
:104D5C0004FB00BF90610B00014B024A1A607047C4
:104D6C00D8E603209C610B00002340681A46FFF72D
:104D7C000BBE406800220221FFF716BE00224068DD
:104D8C001146FFF709BE002240681146FFF714BE1A
:104D9C00002340681A461946FFF716BE00234068E8
:104DAC001A461946FFF718BE40680021FFF73CBEB3
:104DBC0040680021FFF740BE4068002281F00101ED
:104DCC00FFF712BE40680022FFF71EBE00224068AB
:104DDC001146FFF721BE002240681146FFF70CBEBA
:104DEC002DE9F04395B014460D460746FFF776FFC4
:104DFC0000211C220DA8009100F07DFC40230C9397
:104E0C0020466B460CAA0021FFF7D2FC0446002872
:104E1C004BD1024601216868FFF7CEFD0221804686
:104E2C0022466868FFF7C8FD009E81462146002E89
:104E3C003BD0002939D17368022B03D00A2B11D037
:104E4C00F669F4E7B8F1000FFAD0716906A80431DD
:104E5C0007ADFFF771FF0FCD3C1D0FC42B682370FE
:104E6C004146EDE7B9F1000FEAD07469102201A8B0
:104E7C0000F041FC06238DF8143001AD04F1080359
:104E8C001834186859682A4603C20833A3421546D9
:104E9C00F7D101A906A807ADFFF72EFF0FCD3C1DDA
:104EAC000FC42B6823704946CAE70098FFF778FCBB
:104EBC00384615B0BDE8F083024B034A1A60002255
:104ECC005A607047DCE60320A8610B00F8B5064673
:104EDC000D468F180024BD420CD0336815F8011B09
:104EEC009B6830469847031E01DB1C44F3E7002CFB
:104EFC0008BF1C462046F8BD13B50446084659B1F8
:104F0C00019100F02FFC23680199DB6802462046D2
:104F1C0002B0BDE81040184702B010BD03689B6892
:104F2C00184730B58BB00023012A8DF8243098BF78
:104F3C000A2209AC0D46B1FBF2F101FB125303F04E
:104F4C00FF03092B94BF30333733DBB2AA4204F88A
:104F5C00013DEFD92146FFF7CFFF0BB030BD00006C
:104F6C00014B00229A607047E4E603200021FFF712
:104F7C0067BC0021FFF75CBC10B5044608462170E5
:104F8C00FFF73EFC00236360204610BD13B50446BA
:104F9C000078FFF7EEFF58B9207801904FF6FF71BB
:104FAC00FFF70EFC019802B0BDE81040FFF7DEBF22
:104FBC0002B010BD13B5044600780191FFF7D9FF7C
:104FCC00019948B920780190FFF702FC019802B0D2
:104FDC00BDE81040FFF7CABF02B010BD400830B5A5
:104FEC001860002418688842E5B206D90134082CF0
:104FFC0002D040081860F5E70725024B5B5D137083
:10500C0030BD00BFDC610B002DE9F04188B00023FE
:10501C000446007802930E461746FFF7AAFF054692
:10502C0000BB94F800800146142203A800F063FB37
:10503C000B232A4603A94046ADF80C30FFF7F0FBD2
:10504C0004988DF8075002AB0DF1070207FB06F12F
:10505C00FFF7C4FF20789DF80710FFF7C1FB2078FD
:10506C00FFF784FF029808B0BDE8F08138B504461C
:10507C0000780D46FFF77DFF0346D0B9616899B102
:10508C000C4A12F8010B854202D00133082BF8D1DF
:10509C000133DBB20122D9402046FFF7B5FF20785F
:1050AC00BDE83840FFF762BF20782946FFF798FB30
:1050BC00F5E738BDDC610B0008B50078FFF798FB0D
:1050CC00C0B208BD10B504460068FFF7C5FC204609
:1050DC0010BD10B50446006808B1FFF7BDFC0023F5
:1050EC00C4E90133236010BD38B504460D46006891
:1050FC000131FFF7B9FC10B1C4E90005012038BD3E
:10510C0010B50368044623B143688B4201D30120D8
:10511C0010BD2046FFF7E8FF0028F9D0A368002B4C
:10512C00F5D122681370F2E737B50D46114601929E
:10513C000446FFF7E5FF019A28B92046FFF7C9FF9F
:10514C00204603B030BDA2602946206800F0C5FAA5
:10515C002268A3680021D154F2E7002313B5C0E9FB
:10516C00003304468360037341B10846019100F09B
:10517C00F9FA019902462046FFF7D6FF204602B005
:10518C0010BD884210B5044605D00B682BB18A6857
:10519C001946FFF7C9FF204610BDFFF79AFFFAE743
:1051AC0013B5044659B10846019100F0DBFA019998
:1051BC0002462046FFF7B8FF204602B010BDFFF7AD
:1051CC0088FFF9E783688B4203D9006810B1405C13
:1051DC00704700207047FFF7F5BF0000054B022217
:1051EC001A60054B054A9A600020C3E90000FFF7DE
:1051FC009FBB00BF00E70320F4E603200000FFFF85
:10520C00024B1A68024B1A60704700BFBCE50320C2
:10521C0004E7032070474174704708B5007CFFF722
:10522C0047FB20EAE07008BD08B5007CFFF718FBCF
:10523C0020EAE07008BD08B5007CFFF721FB40EACE
:10524C00E07008BD08B5007CFFF712FB40EAE07087
:10525C0008BD007CFFF71CBB37B5457C04462DB15F
:10526C00207C03B0BDE83040FFF7F2BA007C01911E
:10527C00FFF71EFB00280199F2DC284603B030BD75
:10528C0010B514210446FEF702FF204610BD0000A5
:10529C0010B54FF47A730446084611460022C4E94F
:1052AC000123044B2360012320746374FFF708FB74
:1052BC00204610BD08620B00417470477047704760
:1052CC0008B50021007CFFF71BFB40EAE07008BD2D
:1052DC0008B50121007CFFF713FB40EAE07008BD24
:1052EC0008B5007CFFF704FB20EAE07008BD08B5A8
:1052FC00007CFFF7F5FA20EAE07008BD13B5044610
:10530C00007C0191FFF7F4FA0028019901DC607C24
:10531C0020B1207CFFF7FCFA20EAE07002B010BD4F
:10532C00007CFFF7FDBA10B514210446FEF7AFFE62
:10533C00204610BD10B54FF47A7304460846002180
:10534C00C4E90113044B23600123207463741146D8
:10535C00FFF7BEFA204610BD38620B0010B51422C0
:10536C000446002100F0C7F9204610BD10B50F4CC3
:10537C0088B003A8FFF7F2FF2178BFF35B8F11F021
:10538C0001010FD120460191FEF783FE019948B12E
:10539C0003AA0748FFF7CEFF2046FEF77FFE05481D
:1053AC0000F095F9024808B010BD00BF08E70320D3
:1053BC000CE70320C9520B00014B1860704700BF6B
:1053CC00C0E5032008B50B4B43B1FFF7CFFF0368D3
:1053DC001B699847002801DDAFF30080064B43B1F1
:1053EC0000F04AF903681B699847002801DDAFF308
:1053FC00008008BD000000000000000008B5FFF7A9
:10540C00E1FFFFF76DF9014B186008BD28E7032099
:10541C000548064A064908B5121A00F05EF9054B14
:10542C00054A1A6008BD00BF00F4032004F40320F1
:10543C0024630B0000F403201E1C279A07B50023DD
:10544C0000931A466FF07701FFF78CFA03B05DF802
:10545C0004FB000007B543880A2B08D0502B0BD156
:10546C00094B1B684BB103B05DF804EB1847FFF711
:10547C00E5FF03B05DF804FB002300931A466FF0C0
:10548C007701FFF76FFAF4E724E7032010B5124811
:10549C000021FFF701FB114B1A68114B9A42114B7B
:1054AC000CBF012200221A7001D0FFF7B1FFFFF7E9
:1054BC0007F9044600F028F90B4B13B12046AFF363
:1054CC00008000210848FFF757FABDE81040074854
:1054DC000021FFF73DBA00BFC5530B0000F40320B9
:1054EC001E1C279A20E703200000000061540B00CB
:1054FC00232813B502D9002002B010BDA0F10B0374
:10550C00022B1AD8174C2178BFF35B8F11F00101D5
:10551C000BD120460191FEF7BCFD019928B1124830
:10552C00FFF72AFD2046FEF7B9FD0F4B1878FFF761
:10553C006FF90028DFD10120DEE7012809D800F03F
:10554C005BF80021007CFFF713F980F00100C0B27A
:10555C00D2E709380128EED800F08EF8007CFFF76E
:10556C009FF9F2E728E603202CE60320232838B520
:10557C0004460D460AD8FF2908D0FFF7B9FF28B119
:10558C0029462046BDE83840FFF7B2B838BD38B5DB
:10559C0004460D46FFF7B4F8FF2810D0062804D8AF
:1055AC004D2323FA00F0C30709D42046FFF7A0FFD0
:1055BC0028B129462046BDE83840FFF7A9B838BDC8
:1055CC007047000038B50A4B036001230446436161
:1055DC000849202000F076F8202560600549A56078
:1055EC00284600F06FF8C4E90305204638BD00BF1B
:1055FC001800010060620B0030B50E4D2978BFF326
:10560C005B8F11F0010487B011D12846FEF741FDE4
:10561C0068B16846FFF7D6FF6A4621460648FFF791
:10562C0005FB2846FEF73AFD044800F050F8024806
:10563C0007B030BD2CE7032030E70320CD550B001D
:10564C007047000038B5044614252A46002100F0A6
:10565C0052F825804025074925812846258200F0EF
:10566C0031F804496060284600F02CF8E0602046D0
:10567C0038BD00BF60620B0030B50E4D2978BFF30A
:10568C005B8F11F0010487B011D12846FEF701FDA4
:10569C0068B101A8FFF7D6FF01AA21460648FFF71B
:1056AC00F7FD2846FEF7FAFC044800F010F8024813
:1056BC0007B030BD44E7032048E703204D560B00EC
:1056CC00FEF7E1BCFEF7E1BC08B5FFF7D5F9002306
:1056DC0001461A46184600F04DB80A44914200F1B2
:1056EC00FF3300D1704710B511F8014B03F8014F8F
:1056FC009142F9D110BD02440346934200D1704748
:10570C0003F8011BF9E7000038B5104B1D68AB6BB3
:10571C000446B3B91820FFF797F90246A86320B9DD
:10572C000B4B0C484221FFF7AFF90B490B4BC0E96F
:10573C0000130B4B83600B23838100210120C2E9F2
:10574C000401AB6B00221C615A6138BDC0E503201B
:10575C0061620B0078620B000E33CDAB34126DE638
:10576C00ECDE0500034613F8012B002AFBD1181AB6
:10577C00013870472DE9F843DFF8B8800646D8F8B1
:10578C0000001F460D46914600F056F8254B1C684C
:10579C0034B9254C1C60254B13B11B68C4F88830F8
:1057AC0063681F2B07DDD8F8000000F047F84FF0B6
:1057BC00FF30BDE8F8834EB3D4F8880088B91C4B91
:1057CC0023B9D8F8000000F038F8F0E74FF48470F3
:1057DC00FFF73AF90028F4D00023C0E94033C4F8AD
:1057EC008800636840F8239001229A4000EB830103
:1057FC00D0F800311343C0F80031022EC1F880708C
:10580C0002BFD0F804311343C0F804316368D8F8F0
:10581C0000005A1C0233626044F8235000F00EF86A
:10582C000020C6E7E8E703205CE703200000000047
:10583C00554A0B0024E60320704770477047000060
:10584C001D400B0059400B0081400B0085400B00A4
:10585C000000000000000000000000007E8195B1F7
:10586C00B195817E7EFFEBCFCFEBFF7E0E1F3F7E8F
:10587C003F1F0E00081C3E7F3E1C080018BAFFFF9D
:10588C00FFBA180010B8FCFFFCB810000000183C60
:10589C003C180000FFFFE7C3C3E7FFFF003C664274
:1058AC0042663C00FFC399BDBD99C3FF70F8888860
:1058BC00FD7F070F004E5FF1F15F4E00C0E0FF7FF0
:1058CC0005050707C0FF7F0505657F3F995A3CE733
:1058DC00E73C5A997F3E3E1C1C08080008081C1C1B
:1058EC003E3E7F00002466FFFF662400005F5F00E1
:1058FC00005F5F00060F097F7F017F7F40DABFA545
:10590C00FD59030200707070707070008094B6FFC7
:10591C00FFB694800004067F7F0604000010307FE1
:10592C007F3010000808082A3E1C0800081C3E2A7C
:10593C00080808003C3C202020202000081C3E08C1
:10594C00083E1C0830383C3E3E3C3830060E1E3EAD
:10595C003E1E0E06000000000000000000065F5F07
:10596C00060000000007070007070000147F7F14E3
:10597C007F7F1400242E6B6B3A12000046663018A1
:10598C000C666200307A4F5D377A480004070300DA
:10599C0000000000001C3E63410000000041633E1B
:1059AC001C000000082A3E1C1C3E2A0808083E3E2B
:1059BC00080800000080E0600000000008080808EB
:1059CC000808000000006060000000006030180C47
:1059DC00060301003E7F71594D7F3E0040427F7FA0
:1059EC0040400000627359496F66000022634949C8
:1059FC007F360000181C16537F7F500027674545E3
:105A0C007D3900003C7E4B497930000003037179ED
:105A1C000F070000367F49497F360000064F496961
:105A2C003F1E000000006666000000000080E66675
:105A3C0000000000081C36634100000024242424CC
:105A4C0024240000004163361C0800000203515955
:105A5C000F0600003E7F415D5D1F1E007C7E131310
:105A6C007E7C0000417F7F49497F36001C3E6341AC
:105A7C0041632200417F7F41633E1C00417F7F498F
:105A8C005D416300417F7F491D0103001C3E634162
:105A9C00517372007F7F08087F7F000000417F7F79
:105AAC0041000000307040417F3F0100417F7F0882
:105ABC001C776300417F7F41406070007F7F0E1C2C
:105ACC000E7F7F007F7F060C187F7F001C3E63419A
:105ADC00633E1C00417F7F49090F06001E3F217168
:105AEC007F5E0000417F7F09197F6600266F4D594C
:105AFC007332000003417F7F410300007F7F4040F1
:105B0C007F7F00001F3F60603F1F00007F7F3018C9
:105B1C00307F7F0043673C183C674300074F787821
:105B2C004F070000476371594D677300007F7F4139
:105B3C00410000000103060C183060000041417F59
:105B4C007F000000080C0603060C08008080808093
:105B5C0080808080000003070400000020745454EF
:105B6C003C784000417F3F4848783000387C4444C2
:105B7C006C280000307848493F7F4000387C5454F2
:105B8C005C180000487E7F490302000098BCA4A466
:105B9C00F87C0400417F7F08047C780000447D7D04
:105BAC004000000060E08080FD7D0000417F7F10A0
:105BBC00386C440000417F7F400000007C7C18382A
:105BCC001C7C78007C7C04047C780000387C444489
:105BDC007C38000084FCF8A4243C1800183C24A455
:105BEC00F8FC8400447C784C041C1800485C545429
:105BFC007424000000043E7F442400003C7C4040A0
:105C0C003C7C40001C3C60603C1C00003C7C7038C0
:105C1C00707C3C00446C3810386C44009CBCA0A0D8
:105C2C00FC7C00004C64745C4C64000008083E77FB
:105C3C004141000000000077770000004141773EB1
:105C4C0008080000020301030203010070784C46AF
:105C5C004C7870000E9F91B1FB4A00003A7A40409C
:105C6C007A7A4000387C54555D1900000223755532
:105C7C00557D7B42217554547D79400021755554D6
:105C8C007C784000207457577C784000183CA4A4C2
:105C9C00E4400000023B7D55555D1B02397D545498
:105CAC005D190000397D55545C18000001457C7C61
:105CBC00410100000203457D7D43020001457D7CCE
:105CCC0040000000797D1612167D790070782B2B20
:105CDC0078700000447C7C55554500002074545469
:105CEC007C7C54547C7E0B097F7F4900327B494974
:105CFC007B320000327A48487A320000327A4A48C5
:105D0C00783000003A7B41417B7A40003A7A42403D
:105D1C00787840009ABAA0A0FA7A000001193C6683
:105D2C00663C19013D7D40407D3D0000183C24E758
:105D3C00E7242400687E7F49436620002B2FFCFC5F
:105D4C002F2B0000FFFF09092FF6F8A040C088FE9A
:105D5C007F090302207454557D79400000447D7DF9
:105D6C00410000003078484A7A32000038784042CE
:105D7C007A7A40007A7A0A0A7A7000007D7D1931AD
:105D8C007D7D000000262F292F2F280000262F298B
:105D9C002F26000030784D45602000003838080868
:105DAC000808000008080808383800004F6F301841
:105DBC00CCEEBB914F6F30186C76FBF90000007B7A
:105DCC007B000000081C3622081C362222361C08D8
:105DDC0022361C08AA005500AA005500AA55AA553F
:105DEC00AA55AA55DDFFAA77DDAAFF77000000FFB0
:105DFC00FF000000101010FFFF000000141414FF2F
:105E0C00FF0000001010FFFF00FFFF001010F0F06B
:105E1C0010F0F000141414FCFC0000001414F7F73C
:105E2C0000FFFF000000FFFF00FFFF001414F4F45C
:105E3C0004FCFC0014141717101F1F0010101F1F58
:105E4C00101F1F001414141F1F000000101010F05E
:105E5C00F00000000000001F1F1010101010101F89
:105E6C001F101010101010F0F0101010000000FF98
:105E7C00FF1010101010101010101010101010FF38
:105E8C00FF101010000000FFFF1414140000FFFF9F
:105E9C0000FFFF1000001F1F101717140000FCFC60
:105EAC0004F4F41414141717101717141414F4F42E
:105EBC0004F4F4140000FFFF00F7F7141414141486
:105ECC00141414141414F7F700F7F714141414170B
:105EDC001714141410101F1F101F1F10141414F477
:105EEC00F41414141010F0F010F0F01000001F1F38
:105EFC00101F1F100000001F1F141414000000FCC2
:105F0C00FC1414140000F0F010F0F0101010FFFF4F
:105F1C0010FFFF10141414FFFF1414141010101F92
:105F2C001F000000000000F0F0101010FFFFFFFF3A
:105F3C00FFFFFFFFF0F0F0F0F0F0F0F0FFFFFFFFDD
:105F4C000000000000000000FFFFFFFF0F0F0F0F0D
:105F5C000F0F0F0F387C446C386C4400FCFE2A2A5F
:105F6C003E1400007E7E020206060000027E7E02C7
:105F7C007E7E020063775D4963630000387C447C5D
:105F8C003C04040080FE7E20203E1E000406027E9F
:105F9C007C06020099BDE7E7BD9900001C3E6B49E9
:105FAC006B3E1C004C7E7301737E4C0030784A4F64
:105FBC007D390000183C243C3C243C1898FC643C83
:105FCC003E273D181C3E6B49490000007E7F0101B5
:105FDC007F7E00002A2A2A2A2A2A000044445F5F76
:105FEC004444000040515B4E4440000040444E5B32
:105FFC0051400000000000FEFF01070660E080FF3A
:10600C007F00000008086B6B08080000243612366D
:10601C002436120000060F090F06000000000018BD
:10602C00180000000000001010000000103070C0BC
:10603C00FFFF0101001F1F011F1E000000191D178B
:10604C001200000000003C3C3C3C00000000000042
:10605C00000000004D41583732313920416E696DD6
:10606C006174696F6E2044656D6F005365636F6E6C
:10607C00642074657874005468697264207465785F
:10608C0074004C4544204D617472697820746872B8
:10609C00656164004576656E74206D616E6167653F
:1060AC006D656E742074687265616400F9430B0051
:1060BC00B1430B00000000008E600B0000040000D8
:1060CC00000000009D440B0059440B000000000030
:1060DC00A0600B000008000014000000000000008D
:1060EC00000000002B4B0B00214B0B00174B0B003F
:1060FC00CD4A0B000B4B0B00FF4A0B00B54D0B00B0
:10610C00BD4D0B00F34A0B00EB4A0B00E14A0B00B0
:10611C00D74A0B00ED4D0B00000000000000000002
:10612C00C34B0B00B94B0B00AF4B0B00A54B0B003B
:10613C00994B0B008D4B0B00B54D0B00BD4D0B005F
:10614C00814B0B00794B0B006F4B0B00654B0B001D
:10615C00ED4D0B000000000000000000E14B0B00B7
:10616C002B4C0B00034C0B00E34B0B000B4C0B00AC
:10617C00134C0B001B4C0B00234C0B0000000000BD
:10618C0000000000854C0B00754C0B00774C0B008D
:10619C00617070000000000000000000754D0B00E5
:1061AC007F4D0B00894D0B00934D0B009D4D0B004B
:1061BC00A94D0B00B54D0B00BD4D0B00C54D0B0093
:1061CC00D14D0B00D94D0B00E34D0B00ED4D0B00E9
:1061DC00000810182028303825592D256D2D2564E0
:1061EC005425483A254D3A2553257A00617363743A
:1061FC00696D6500000000000000000021520B00DA
:10620C008D520B0065520B00D94E0B0035520B0012
:10621C0051520B0043520B005F520B0023520B00E8
:10622C0027520B000000000000000000CB520B00B6
:10623C0033530B0009530B00D94E0B00FB520B00D0
:10624C00CD520B00DD520B002D530B00ED520B0009
:10625C00C5520B00005245454E54206D616C6C6F5D
:10626C006320737563636565646564002F746D707A
:10627C002F6A656E6B696E732D4743432D31302D3C
:10628C00706970656C696E652D34385F32303230F0
:10629C00313132345F313630363138303633392F94
:1062AC007372632F6E65776C69622F6E65776C699C
:1062BC00622F6C6962632F7374646C69622F7261F4
:1062CC006E642E630000000049440B00BD4A0B00B5
:1062DC00354B0B00CD4B0B00654D0B00C54E0B0029
:1062EC006D4F0B00E9510B000D520B00000000002C
:0462FC00000000009E
:10630000040000001400000003000000474E550088
:1063100058395FF3808103A9836C3DADB98BB8EF29
:04632000E6E54387E4
:046324000000000075
:10632800F8610B00C4E50320000000000000000035
:106338000000000000000000000000000000000055
:106348000000000000000000000000000000000045
:106358000000000000000000000000000000000035
:106368000000000000000000000000000000000025
:106378000000000000000000000000000000000015
:0C6388000000000000000000ECE7032013
:10639400FFFFFFFF00000102030405060708090AC6
:1063A4000B0C0D0E0F101112131415161718191AC1
:0863B4001B1C1D1E1F20280008
:0463BC0078563412C9
:04000003B000401CED
:00000001FF
