:02000002B0004C
:1040000000400B002C640B00000006000D000502B0
:084010000401A50F00000000EF
:0440180094580B00AD
:10401C0009480A49884208B505D0094A824202D0AB
:10402C00121A01F07EFB0748074A0021121A01F010
:10403C0086FB014808BD00BFBCE5032098630B005C
:10404C0028E6032028E60320EDE7032070B5074E91
:10405C00074C00F0B1FFA41BA4080025AC4200D112
:10406C0070BD56F8043B98470135F7E744630B00E5
:10407C0068630B0000F016B808B500F021F8BDE835
:10408C00084000F051BF00F005BD00F003BD00F08A
:10409C0009BD0078B0FA80F0400970470123037025
:1040AC007047000008B5054800231A4619464068B9
:1040BC0000F094FCBDE8084000F0F6B9C4E603201B
:1040CC004CF2503000F00ABF70B504460D46143067
:1040DC000E49164601F0F1F90C4904F1240001F0E7
:1040EC00ECF901220023C4E90D234FF0FF33E36305
:1040FC0040F20713A4F8423084F8405084F8416031
:10410C00E800FFF7C2FF2060204670BD40630B0043
:10411C0090F84330032B05D8DFE803F002050912B1
:10412C0000238363704790F84030DB00F9E7C269E5
:10413C0090F84230534390F84020A3EBC203F0E7D1
:10414C0090F84230C26953435B42EAE7002310B552
:10415C001C4690F840105A1CDBB2B3EBC10F03DACB
:10416C000168CC541346F4E710BD10B50446143066
:10417C0001F0B7F9002363632046BDE81040FFF758
:10418C00C7BF243001F0ADB938B5044690F84210E1
:10419C0094F84020436BC069D200013B00FB012224
:1041AC0093FBF2F102FB113363638BB9E36A7BB1CE
:1041BC0004F12405294604F1140001F092F9284673
:1041CC00044901F09DF92046BDE83840FFF7A0BF37
:1041DC0038BD00BF40630B0002F00702CB08C2F1F0
:1041EC00070202EBC3020068C943012301F0070177
:1041FC0003FA01F1835C1943815470470029F8B527
:10420C000646174616DB90F84030B1EBC30F4FEA69
:10421C00C3040FDA641A013C0025E4B247FA05F333
:10422C00DB0704D5EAB221463046FFF7D5FF01354E
:10423C00082DF3D1F8BD00002DE9F843DFF85480C8
:10424C000446002500F11407E369AB421FD9294647
:10425C00384601F070F900B208EBC009002694F85A
:10426C004210636B05FB01611944A36BC91809D497
:10427C0094F84030B1EBC30F04DA19F8062020464D
:10428C00FFF7BCFF0136082EE9D10135DCE7BDE8AC
:10429C00F88300BFA8580B0013B50B4C2178BFF363
:1042AC005B8F11F001010BD120460191FFF7F1FE5C
:1042BC00019928B1054800F0D1FF2046FFF7EEFE2A
:1042CC00024802B010BD00BF28E603202CE60320F4
:1042DC002DE9F341051D04460E469046002190F849
:1042EC004020019228461F4601F029FA019A00212C
:1042FC0004F10C0001F023FAA1196FF0030681F808
:10430C0004800F7394F84100002101F0E4F9361B8E
:10431C0094F8402073199A420FDD15F8011B019196
:10432C00FFF7BAFF019901F039F8E9790191FFF72C
:10433C00B3FF019901F032F8EAE794F8410001214A
:10434C0002B0BDE8F04101F0C6B937B50121044611
:10435C0090F8410001F0AEF9FFF79EFF00F088FFE6
:10436C00FFF79AFF002100F097FFFFF795FF302130
:10437C0000F0EEFF002594F84030E9B28B421FD9D3
:10438C0007230B2220460191FFF7A2FF019900237E
:10439C0009222046FFF79CFF019900230F2220469B
:1043AC00FFF796FF019900230A222046FFF790FFA2
:1043BC00019901230C222046FFF78AFF0135DAE729
:1043CC0003B030BD38B505460023D9B25C1C95F856
:1043DC004030B1EBC30F0ADA2B6801F007025B5CCB
:1043EC000132C9082846FFF773FF2346EDE738BDB5
:1043FC0010B5012303748368044643B1C068984721
:10440C00012363740020BDE8104000F06FBA00680F
:10441C000028F5D083680BB901F07AF9C368EEE790
:10442C002DE9F34104460E4614201D4990461F46C3
:10443C0001F06AF930B10025C0E90055C0E9025518
:10444C0005744574206098B1099B9DF82020C0E943
:10445C0002873146CDE90003124B043000F006FA16
:10446C0030B923681B7CBBB9012000F04FFAF8E788
:10447C002668002323607EB135684DB1AB681BB153
:10448C00032229462846984710212846FFF7FFFDAE
:10449C0014213046FFF7FBFD204602B0BDE8F08149
:1044AC00AC620B00FD430B00F0B5154D0FCD93B076
:1044BC0006AC0FC40FCD0FC495E80F0084E80F00B5
:1044CC0000F020F800F072F806AC00262268E168D3
:1044DC00A36805920420D4E9047504910393FFF7B3
:1044EC00D2FD38B1EDB2DDE90412039B01970095C2
:1044FC00FFF796FF18340EB113B0F0BD0126E5E7B7
:10450C00D4600B001FB50E4C2046FFF71EFF0D4963
:10451C00684600F0D2FF69462046FFF726FE684643
:10452C0000F080FF0849684600F0C7FF6946204646
:10453C00FFF727FE684600F075FF04B010BD00BF02
:10454C0034E6032004610B001B610B007FB5114D99
:10455C00114E00240F48FFF7F9FD0E48FFF714FE2B
:10456C000C48FFF769FE0B48FFF72CFF0134322093
:10457C0000F0B4FCB4F5C87FECD13146684600F0CD
:10458C009CFF28466946FFF7FCFD684600F04AFF91
:10459C00E0E700BF34E6032027610B0002480E223F
:1045AC000621FFF791BD00BF34E6032008B5202299
:1045BC0000230821094800F081F9082000F06AFA6C
:1045CC00074B1860074B08480022C3E9002200F093
:1045DC0055F9064B01221A7008BD00BF78E603207E
:1045EC0094E603208CE6032088E6032084E603206F
:1045FC002DE9F74F1B4F1C481C4E0068DFF87080EC
:10460C0000234FF0FF32694600F068F9306800F083
:10461C003DF90024D8F80030A3421EDDDFF854A089
:10462C00DFF854B04FEA840900255AF82430AB4225
:10463C0011DD3B6853F809305A5D9DF804309A42FD
:10464C0007D15BF8240000234FF0FF32694600F0DD
:10465C003DF90135E9E70134DCE7306800F01EF97B
:10466C00C9E700BF94E6032078E6032088E6032020
:10467C0098E603208CE603207CE6032008B5024B69
:10468C001B681B68019308BD4C02030008B5024B64
:10469C001B681B69019308BD4C02030008B5024B53
:1046AC001B685B69019308BD4C02030008B5024B03
:1046BC001B689B69019308BD4C02030008B5024BB3
:1046CC001B68DB69019308BD4C02030008B5024B63
:1046DC001B681B6A019308BD4C02030008B5024B12
:1046EC001B681B6A019308BD2802030008B5024B26
:1046FC001B685B6A019308BD2802030008B5024BD6
:10470C001B689B6A019308BD2802030008B5024B85
:10471C001B68DB6A019308BD2802030008B5024B35
:10472C001B681B6B019308BD2802030008B5024BE4
:10473C001B685B6B019308BD2802030008B5024B94
:10474C001B681B6C019308BD2802030008B5024BC3
:10475C001B681B68019308BD3002030008B5024BAF
:10476C001B68DB68019308BD3002030008B5024BDF
:10477C001B681B69019308BD3002030008B5024B8E
:10478C001B685B69019308BD3002030008B5024B3E
:10479C001B68DB69019308BD3002030008B5024BAE
:1047AC001B681B6A019308BD3002030008B5024B5D
:1047BC001B685B6A019308BD3002030008B5024B0D
:1047CC001B681B6C019308BD3002030008B5024B3B
:1047DC001B685B6C019308BD3002030008B5024BEB
:1047EC001B68DB68019308BD3C02030008B5024B53
:1047FC001B681B69019308BD3C02030008B5024B02
:10480C001B685B69019308BD3C02030008B5024BB1
:10481C001B689B69019308BD3C02030008B5024B61
:10482C001B68DB69019308BD3C02030008B5024B11
:10483C001B681B6A019308BD3C02030008B5024BC0
:10484C001B689B6A019308BD3C02030008B5024B30
:10485C001B681B6C019308BD3C02030008B5024B9E
:10486C001B685B69019308BD6402030008B5024B29
:10487C001B685B68019308BD4802030008B5024B36
:10488C001B681B6B019308BD4802030008B5024B63
:10489C001B689B6B019308BD4802030008B5024BD3
:1048AC001B681B6C019308BD4802030008B5024B42
:1048BC001B685B6C019308BD4802030008B5024BF2
:1048CC001B68DB6D019308BD4802030008B5024B61
:1048DC001B685B6E019308BD4802030008B5024BD0
:1048EC001B689B6E019308BD4802030008B5024B80
:1048FC001B68DB6E019308BD4802030008B5024B30
:10490C001B685B68019308BD1802030008B5024BD5
:10491C001B689B68019308BD1802030008B5024B85
:10492C001B685B69019308BD1802030008B5024BB4
:10493C001B689B68019308BD2C02030008B5024B51
:10494C001B68DB68019308BD2C02030008B5024B01
:10495C001B681B69019308BD2C02030008B5024BB0
:10496C001B689B68019308BD6802030008B5024BE5
:10497C001B68DB68019308BD6802030008B5024B95
:10498C001B68DB6B019308BD4402030008B5024BA6
:10499C001B685B68019308BD4002030008B5024B1D
:1049AC001B689B68019308BD4002030008B5024BCD
:1049BC001B68DB68019308BD4002030008B5024B7D
:1049CC001B681B69019308BD4002030008B5024B2C
:1049DC001B685B69019308BD4002030008B5024BDC
:1049EC001B689B69019308BD4002030008B5024B8C
:1049FC001B68DB69019308BD4002030008B5024B3C
:104A0C001B681B6A019308BD4002030008B5024BEA
:104A1C001B681B6B019308BD4002030008B5024BD9
:104A2C001B685B6B019308BD4002030008B5024B89
:104A3C001B681B6C019308BD4002030008B5024BB8
:104A4C001B685B6C019308BD4002030008B5024B68
:104A5C001B685B68019308BD2002030008B5024B7C
:104A6C001B685B69019308BD2002030008B5034B6A
:104A7C001B68D3F88830019308BD000020020300A6
:104A8C0008B5034B1B68D3F89430019308BD0000A4
:104A9C002002030008B5024B1B681B68019308BD7C
:104AAC001C02030008B5024B1B685B68019308BD30
:104ABC001C02030008B5024B1B689B68019308BDE0
:104ACC001C02030008B5024B1B68DB6A019308BD8E
:104ADC001C02030008B5024B1B681B6C019308BD3C
:104AEC001C02030008B5024B1B685B6C019308BDEC
:104AFC001C020300002340681A46FFF747BF4068BA
:104B0C0000220221FFF752BF002240681146FFF736
:104B1C0045BF002240681146FFF750BF0023406894
:104B2C001A461946FFF752BF002340681A46194629
:104B3C00FFF754BF40680021FFF778BF40680021A1
:104B4C00FFF77CBF4068002281F00101FFF74EBFE8
:104B5C0040680022FFF75ABF002240681146FFF759
:104B6C005DBF002240681146FFF748BF2DE9F043B6
:104B7C0095B014460D46074600F072F900211C2230
:104B8C000DA8009100F0DBFD40230C9320466B46F2
:104B9C000CAA0021FFF7EAFE044600284BD102467E
:104BAC0001216868FFF70AFF0221804622466868E7
:104BBC00FFF704FF009E81462146002E3BD00029C2
:104BCC0039D17368022B03D00A2B11D0F669F4E7A4
:104BDC00B8F1000FFAD0716906A8043107AD00F0E6
:104BEC006DF90FCD3C1D0FC42B6823704146EDE7CA
:104BFC00B9F1000FEAD07469102201A800F09FFDF2
:104C0C0006238DF8143001AD04F10803183418682C
:104C1C0059682A4603C20833A3421546F7D101A9A5
:104C2C0006A807AD00F02AF90FCD3C1D0FC42B6868
:104C3C0023704946CAE70098FFF790FE384615B036
:104C4C00BDE8F083024B034A1A6000225A60704799
:104C5C009CE603203C610B007047F8B506461546F0
:104C6C000C468F18BC4206D0336814F8011B9B68A5
:104C7C0030469847F6E72846F8BD007C0022FFF73F
:104C8C002DBD007C0021FFF731BD007C0021FFF71A
:104C9C0035BD007C0021FFF739BD007C0021FFF7FA
:104CAC003DBD10B514210446FFF7F1F9204610BDA7
:104CBC0038B5044615464FF47A730022C4E9012333
:104CCC00094B2174084623602946FFF737FDBF3096
:104CDC0008D16B69DB0705D56868FFF7E3FEE86868
:104CEC00FFF7E0FE204638BD78610B004174704739
:104CFC007047704708B50021007CFFF7D7FC40EAED
:104D0C00E07008BD08B50121007CFFF7CFFC40EA3C
:104D1C00E07008BD08B5007CFFF7C0FC20EAE0702D
:104D2C0008BD08B5007CFFF7B1FC20EAE07008BDB7
:104D3C0013B50446007C0191FFF7B0FC00280199E3
:104D4C0001DC607C20B1207CFFF7B8FC20EAE0702D
:104D5C0002B010BD007CFFF7B9BC10B5142104469D
:104D6C00FFF795F9204610BD10B54FF47A73044641
:104D7C0008460021C4E90113044B2360012320746D
:104D8C0063741146FFF77AFC204610BDA0610B003E
:104D9C0010B514220446002100F0D1FC204610BDB1
:104DAC0010B50F4C88B003A8FFF7F2FF2178BFF3C2
:104DBC005B8F11F001010FD120460191FFF769F9CA
:104DCC00019948B103AA0748FFF7CEFF2046FFF729
:104DDC0065F9054800F09FFC024808B010BD00BF03
:104DEC00A4E60320A8E60320FD4C0B00704710B589
:104DFC0018210446FFF74BF9204610BDF0B5037D92
:104E0C00062B8DB00E4600F104074FF0000412D0B3
:104E1C0000F1080515F8011D0A22304600F08DF945
:104E2C00AF42044419D0002CF4D02E21304600F0AF
:104E3C0081F90444EEE72F236A4639460A208DF89F
:104E4C000040FFF70BFD684600F0B0FC33680246EB
:104E5C00DB68694630469847044620460DB0F0BDE5
:104E6C0010B5054B0446112240F8043B002100F01C
:104E7C0066FC204610BD00BFD0610B000346074AFC
:104E8C0010B543F8042B01F1100251F8044B43F810
:104E9C00044B9142F9D10A781A7010BDD0610B0005
:104EAC0010B59DF8084044EA032343EA024242EA63
:104EBC00016104234160037510BD000007B5064B6A
:104ECC000360CB7800938B784A780978FFF7E8FF7A
:104EDC0003B05DF804FB00BFD0610B000021FFF7AD
:104EEC00BDBD0000014B1860704700BFC0E503203A
:104EFC0008B50B4B43B1FFF753FF03681B69984789
:104F0C00002801DDAFF30080064B43B100F070FBCD
:104F1C0003681B699847002801DDAFF3008008BDCA
:104F2C00000000000000000008B5FFF7E1FFFFF7EC
:104F3C00F5FC014B186008BD40E703200548064A04
:104F4C00064908B5121A00F0ECFB054B054A1A602D
:104F5C0008BD00BF00F4032004F4032094630B008D
:104F6C0000F403201E1C279A07B5002300931A4651
:104F7C006FF07701FFF784FD03B05DF804FB0000D0
:104F8C0007B543880A2B08D0502B0BD1094B1B6853
:104F9C004BB103B05DF804EB1847FFF7E5FF03B026
:104FAC005DF804FB002300931A466FF07701FFF7BE
:104FBC0067FDF4E7C0E6032010B512480021FFF7A7
:104FCC0091FD114B1A68114B9A42114B0CBF0122E7
:104FDC0000221A7001D0FFF7B1FFFFF78FFC0446D7
:104FEC0000F0B6FB0B4B13B12046AFF30080002151
:104FFC000848FFF7C3FCBDE8104007480021FFF745
:10500C0035BD00BFF14E0B0000F403201E1C279A87
:10501C00BCE60320000000008D4F0B00002240680E
:10502C001146FFF7CBBC002240681146FFF7E6BCE7
:10503C00002240681146FFF7F1BC40680022FFF7E0
:10504C00E5BC4068002281F00101FFF7CFBC0023D2
:10505C0040681A461946FFF7C1BC002340681A463F
:10506C001946FFF7B3BC002240681146FFF796BC07
:10507C00406800220221FFF799BC002340681A46C1
:10508C00FFF784BC084B10B5282422461846002193
:10509C0000F055FB054B04804FF0FF3242600422B8
:1050AC005A60034A1A6010BDCCE60320C4E6032004
:1050BC00E4610B00014B00229A607047F4E6032078
:1050CC00024B1A68024B1A60704700BFBCE5032004
:1050DC0004E70320014B024A1A60704708E70320DB
:1050EC0034620B00F8B506460D468F180024BD42FD
:1050FC000CD0336815F8011B9B6830469847031E8B
:10510C0001DB1C44F3E7002C08BF1C462046F8BD0D
:10511C0013B50446084659B1019100F047FB2368CA
:10512C000199DB680246204602B0BDE810401847E2
:10513C0002B010BD03689B68184730B58BB00023D4
:10514C00012A8DF8243098BF0A2209AC0D46B1FB18
:10515C00F2F101FB125303F0FF03092B94BF303320
:10516C003733DBB2AA4204F8013DEFD92146FFF7F1
:10517C00CFFF0BB030BD0000024800230360FFF7E7
:10518C0095BB00BF0CE7032070474174704708B50E
:10519C00007CFFF753FB20EAE07008BD08B5007CEB
:1051AC00FFF724FB20EAE07008BD08B5007CFFF790
:1051BC002DFB40EAE07008BD08B5007CFFF71EFB34
:1051CC0040EAE07008BD007CFFF728BB37B5457C92
:1051DC0004462DB1207C03B0BDE83040FFF7FEBA89
:1051EC00007C0191FFF72AFB00280199F2DC28468C
:1051FC0003B030BD10B514210446FEF748FF20461D
:10520C0010BD000010B54FF47A73044608461146E1
:10521C000022C4E90123044B23600123207463742E
:10522C00FFF714FB204610BD40620B00054B022219
:10523C001A60054B054A9A600020C3E90000FFF78D
:10524C0005BC00BF1CE7032010E703200000FFFF94
:10525C000021FFF7BBBA0021FFF7B0BA10B5044626
:10526C0008462170FFF792FA00236360204610BDB8
:10527C0013B504460078FFF7EEFF58B9207801907B
:10528C004FF6FF71FFF762FA019802B0BDE81040CB
:10529C00FFF7DEBF02B010BD13B5044600780191D4
:1052AC00FFF7D9FF019948B920780190FFF756FA1A
:1052BC00019802B0BDE81040FFF7CABF02B010BDA4
:1052CC00400830B51860002418688842E5B206D949
:1052DC000134082C02D040081860F5E70725024B72
:1052EC005B5D137030BD00BF68620B002DE9F041AF
:1052FC0088B000230446007802930E461746FFF749
:10530C00AAFF054600BB94F800800146142203A8AE
:10531C0000F015FA0B232A4603A94046ADF80C30D1
:10532C00FFF744FA04988DF8075002AB0DF1070211
:10533C0007FB06F1FFF7C4FF20789DF80710FFF775
:10534C0015FA2078FFF784FF029808B0BDE8F081C9
:10535C0038B5044600780D46FFF77DFF0346D0B9FB
:10536C00616899B10C4A12F8010B854202D00133E5
:10537C00082BF8D10133DBB20122D9402046FFF7CC
:10538C00B5FF2078BDE83840FFF762BF207829468A
:10539C00FFF7ECF9F5E738BD68620B0008B500784B
:1053AC00FFF7ECF9C0B208BD002240681146FFF7C8
:1053BC0025BB002240681146FFF730BB4068002235
:1053CC00FFF724BB4068002281F00101FFF70EBB00
:1053DC00002340681A461946FFF700BB00234068BB
:1053EC001A461946FFF7F2BA002240681146FFF739
:1053FC00E5BA002240681146FFF7D0BA4068002297
:10540C000221FFF7D3BA002340681A46FFF7BEBA51
:10541C00024B03225A60024A1A60704720E70320AD
:10542C0078620B0010B504460068FFF73BFB204682
:10543C0010BD10B50446006808B1FFF733FB00231C
:10544C00C4E90133236010BD38B504460D4600682D
:10545C000131FFF72FFB10B1C4E90005012038BD65
:10546C0010B50368044623B143688B4201D3012075
:10547C0010BD2046FFF7E8FF0028F9D0A368002BE9
:10548C00F5D122681370F2E737B50D46114601923B
:10549C000446FFF7E5FF019A28B92046FFF7C9FF3C
:1054AC00204603B030BDA2602946206800F039F9CF
:1054BC002268A3680021D154F2E7002313B5C0E998
:1054CC00003304468360037341B10846019100F038
:1054DC006DF9019902462046FFF7D6FF204602B02F
:1054EC0010BD884210B5044605D00B682BB18A68F4
:1054FC001946FFF7C9FF204610BDFFF79AFFFAE7E0
:10550C0013B5044659B10846019100F04FF90199C1
:10551C0002462046FFF7B8FF204602B010BDFFF749
:10552C0088FFF9E783688B4203D9006810B1405CAF
:10553C00704700207047FFF7F5BF704738B50A4B2E
:10554C0003600123044643610849202000F0DEF883
:10555C00202560600549A560284600F0D7F8C4E90D
:10556C000305204638BD00BF18000100AC620B00DB
:10557C0030B50E4D2978BFF35B8F11F0010487B065
:10558C0011D12846FEF785FD68B16846FFF7D6FFB6
:10559C006A4621460648FFF78BFB2846FEF77EFD40
:1055AC00044800F0B8F8024807B030BD28E70320E3
:1055BC002CE7032047550B007047000038B5044614
:1055CC0014252A46002100F0BAF825804025074909
:1055DC0025812846258200F099F804496060284608
:1055EC0000F094F8E060204638BD00BFAC620B00C0
:1055FC0030B50E4D2978BFF35B8F11F0010487B0E5
:10560C0011D12846FEF745FD68B101A8FFF7D6FF7A
:10561C0001AA21460648FFF7F5FD2846FEF73EFD98
:10562C00044800F078F8024807B030BD44E7032086
:10563C0048E70320C5550B00232813B502D90020D9
:10564C0002B010BDA0F10B03022B1AD8174C217815
:10565C00BFF35B8F11F001010BD120460191FEF7D6
:10566C0018FD019928B11248FFF7F8FD2046FEF706
:10567C0015FD0F4B1878FFF791F80028DFD10120AA
:10568C00DEE7012809D8FFF773FF0021007CFFF744
:10569C004DF880F00100C0B2D2E709380128EED8ED
:1056AC00FFF7A6FF007CFFF7C1F8F2E728E603201E
:1056BC002CE60320232838B504460D460AD8FF29CA
:1056CC0008D0FFF7B9FF28B129462046BDE838407D
:1056DC00FFF72CB938BD38B504460D46FFF72EF947
:1056EC00FF2810D0062804D84D2323FA00F0C30756
:1056FC0009D42046FFF7A0FF28B129462046BDE873
:10570C003840FFF723B938BDFEF7BDBCFEF7BDBC72
:10571C0008B5FFF7D7F9002301461A46184600F0E2
:10572C004DB80A44914200F1FF3300D1704710B5D7
:10573C0011F8014B03F8014F9142F9D110BD02440D
:10574C000346934200D1704703F8011BF9E70000B0
:10575C0038B5104B1D68AB6B0446B3B91820FFF776
:10576C0099F90246A86320B90B4B0C484221FFF76C
:10577C00B1F90B490B4BC0E900130B4B83600B23A6
:10578C00838100210120C2E90401AB6B00221C6162
:10579C005A6138BDC0E50320AD620B00C4620B003A
:1057AC000E33CDAB34126DE6ECDE0500034613F878
:1057BC00012B002AFBD1181A013870472DE9F84348
:1057CC00DFF8B8800646D8F800001F460D46914613
:1057DC0000F056F8254B1C6834B9254C1C60254B41
:1057EC0013B11B68C4F8883063681F2B07DDD8F829
:1057FC00000000F047F84FF0FF30BDE8F8834EB3DF
:10580C00D4F8880088B91C4B23B9D8F8000000F0F4
:10581C0038F8F0E74FF48470FFF73CF90028F4D027
:10582C000023C0E94033C4F88800636840F8239033
:10583C0001229A4000EB8301D0F800311343C0F8E9
:10584C000031022EC1F8807002BFD0F8043113432E
:10585C00C0F804316368D8F800005A1C0233626047
:10586C0044F8235000F00EF80020C6E7E8E70320C8
:10587C005CE7032000000000A14A0B0024E6032093
:10588C0070477047704700001D400B0059400B00DB
:10589C0081400B0085400B00000000000000000060
:1058AC00000000007E8195B1B195817E7EFFEBCF2B
:1058BC00CFEBFF7E0E1F3F7E3F1F0E00081C3E7F6E
:1058CC003E1C080018BAFFFFFFBA180010B8FCFF06
:1058DC00FCB810000000183C3C180000FFFFE7C3A8
:1058EC00C3E7FFFF003C664242663C00FFC399BD24
:1058FC00BD99C3FF70F88888FD7F070F004E5FF1DC
:10590C00F15F4E00C0E0FF7F05050707C0FF7F0574
:10591C0005657F3F995A3CE7E73C5A997F3E3E1C10
:10592C001C08080008081C1C3E3E7F00002466FF73
:10593C00FF662400005F5F00005F5F00060F097FB9
:10594C007F017F7F40DABFA5FD59030200707070A4
:10595C00707070008094B6FFFFB694800004067FD0
:10596C007F0604000010307F7F3010000808082AE2
:10597C003E1C0800081C3E2A080808003C3C20205D
:10598C0020202000081C3E08083E1C0830383C3EF5
:10599C003E3C3830060E1E3E3E1E0E060000000039
:1059AC000000000000065F5F060000000007070013
:1059BC0007070000147F7F147F7F1400242E6B6B6D
:1059CC003A120000466630180C666200307A4F5D61
:1059DC00377A48000407030000000000001C3E63F7
:1059EC00410000000041633E1C000000082A3E1CE0
:1059FC001C3E2A0808083E3E080800000080E060B3
:105A0C00000000000808080808080000000060609A
:105A1C00000000006030180C060301003E7F715935
:105A2C004D7F3E0040427F7F4040000062735949E9
:105A3C006F660000226349497F360000181C16531C
:105A4C007F7F5000276745457D3900003C7E4B49E0
:105A5C0079300000030371790F070000367F494944
:105A6C007F360000064F49693F1E00000000666645
:105A7C00000000000080E66600000000081C366391
:105A8C004100000024242424242400000041633617
:105A9C001C080000020351590F0600003E7F415DB7
:105AAC005D1F1E007C7E13137E7C0000417F7F49AE
:105ABC00497F36001C3E634141632200417F7F4198
:105ACC00633E1C00417F7F495D416300417F7F49FC
:105ADC001D0103001C3E6341517372007F7F080857
:105AEC007F7F000000417F7F41000000307040410B
:105AFC007F3F0100417F7F081C776300417F7F411E
:105B0C00406070007F7F0E1C0E7F7F007F7F060C35
:105B1C00187F7F001C3E6341633E1C00417F7F4920
:105B2C00090F06001E3F21717F5E0000417F7F0937
:105B3C00197F6600266F4D597332000003417F7F39
:105B4C00410300007F7F40407F7F00001F3F60606B
:105B5C003F1F00007F7F3018307F7F0043673C1869
:105B6C003C674300074F78784F0700004763715933
:105B7C004D677300007F7F41410000000103060C5C
:105B8C00183060000041417F7F000000080C0603C4
:105B9C00060C0800808080808080808000000307D5
:105BAC0004000000207454543C784000417F3F486E
:105BBC0048783000387C44446C28000030784849E0
:105BCC003F7F4000387C54545C180000487E7F496D
:105BDC000302000098BCA4A4F87C0400417F7F0859
:105BEC00047C780000447D7D4000000060E08080F3
:105BFC00FD7D0000417F7F10386C440000417F7FA9
:105C0C00400000007C7C18381C7C78007C7C0404F0
:105C1C007C780000387C44447C38000084FCF8A478
:105C2C00243C1800183C24A4F8FC8400447C784CD8
:105C3C00041C1800485C54547424000000043E7F7B
:105C4C00442400003C7C40403C7C40001C3C606098
:105C5C003C1C00003C7C7038707C3C00446C381060
:105C6C00386C44009CBCA0A0FC7C00004C64745CB0
:105C7C004C64000008083E774141000000000077AA
:105C8C00770000004141773E080800000203010341
:105C9C000203010070784C464C7870000E9F91B155
:105CAC00FB4A00003A7A40407A7A4000387C5455DE
:105CBC005D19000002237555557D7B4221755454A6
:105CCC007D794000217555547C78400020745757DD
:105CDC007C784000183CA4A4E4400000023B7D55B5
:105CEC00555D1B02397D54545D190000397D5554A6
:105CFC005C18000001457C7C410100000203457DDD
:105D0C007D43020001457D7C40000000797D161228
:105D1C00167D790070782B2B78700000447C7C55B4
:105D2C0055450000207454547C7C54547C7E0B09E3
:105D3C007F7F4900327B49497B320000327A4848E8
:105D4C007A320000327A4A48783000003A7B41417E
:105D5C007B7A40003A7A4240787840009ABAA0A008
:105D6C00FA7A000001193C66663C19013D7D404001
:105D7C007D3D0000183C24E7E7242400687E7F4921
:105D8C00436620002B2FFCFC2F2B0000FFFF090982
:105D9C002FF6F8A040C088FE7F09030220745455EA
:105DAC007D79400000447D7D410000003078484AF8
:105DBC007A320000387840427A7A40007A7A0A0ABD
:105DCC007A7000007D7D19317D7D000000262F2921
:105DDC002F2F280000262F292F26000030784D4524
:105DEC006020000038380808080800000808080877
:105DFC00383800004F6F3018CCEEBB914F6F301815
:105E0C006C76FBF90000007B7B000000081C36223E
:105E1C00081C362222361C0822361C08AA00550003
:105E2C00AA005500AA55AA55AA55AA55DDFFAA776E
:105E3C00DDAAFF77000000FFFF000000101010FF2C
:105E4C00FF000000141414FFFF0000001010FFFFEF
:105E5C0000FFFF001010F0F010F0F000141414FC10
:105E6C00FC0000001414F7F700FFFF000000FFFF18
:105E7C0000FFFF001414F4F404FCFC0014141717B6
:105E8C00101F1F0010101F1F101F1F001414141FB1
:105E9C001F000000101010F0F00000000000001FA8
:105EAC001F1010101010101F1F101010101010F0D9
:105EBC00F0101010000000FFFF1010101010101048
:105ECC0010101010101010FFFF101010000000FF29
:105EDC00FF1414140000FFFF00FFFF1000001F1F31
:105EEC00101717140000FCFC04F4F4141414171706
:105EFC00101717141414F4F404F4F4140000FFFF36
:105F0C0000F7F71414141414141414141414F7F7CD
:105F1C0000F7F714141414171714141410101F1F6F
:105F2C00101F1F10141414F4F41414141010F0F0A7
:105F3C0010F0F01000001F1F101F1F100000001F9A
:105F4C001F141414000000FCFC1414140000F0F0D6
:105F5C0010F0F0101010FFFF10FFFF10141414FFBE
:105F6C00FF1414141010101F1F000000000000F08C
:105F7C00F0101010FFFFFFFFFFFFFFFFF0F0F0F03D
:105F8C00F0F0F0F0FFFFFFFF000000000000000049
:105F9C00FFFFFFFF0F0F0F0F0F0F0F0F387C446C1D
:105FAC00386C4400FCFE2A2A3E1400007E7E02025D
:105FBC0006060000027E7E027E7E020063775D494B
:105FCC0063630000387C447C3C04040080FE7E202B
:105FDC00203E1E000406027E7C06020099BDE7E707
:105FEC00BD9900001C3E6B496B3E1C004C7E73013E
:105FFC00737E4C0030784A4F7D390000183C243CAD
:10600C003C243C1898FC643C3E273D181C3E6B49D4
:10601C00490000007E7F01017F7E00002A2A2A2A87
:10602C002A2A000044445F5F4444000040515B4E08
:10603C004440000040444E5B51400000000000FE14
:10604C00FF01070660E080FF7F00000008086B6B13
:10605C0008080000243612362436120000060F09F8
:10606C000F060000000000181800000000000010CF
:10607C0010000000103070C0FFFF0101001F1F0155
:10608C001F1E000000191D171200000000003C3CF0
:10609C003C3C000000000000000000004C45442087
:1060AC004D6174726978207468726561640045761C
:1060BC00656E74206D616E6167656D656E742074BC
:1060CC00687265616400000059450B0011450B00B6
:1060DC0000000000A8600B0000040000000000009D
:1060EC00FD450B00B9450B0000000000BA600B0029
:1060FC0000080000140000004D415837323139209F
:10610C00416E696D6174696F6E2044656D6F0053EB
:10611C0065636F6E6420746578740054686972648A
:10612C00207465787400000000000000000000007E
:10613C00014B0B000B4B0B00154B0B001F4B0B00BB
:10614C00294B0B00354B0B00414B0B00494B0B0003
:10615C00514B0B005D4B0B00654B0B006F4B0B0059
:10616C00794B0B000000000000000000654C0B0098
:10617C00AF4C0B00874C0B00674C0B008F4C0B008B
:10618C00974C0B009F4C0B00A74C0B000000000021
:10619C0000000000FF4C0B00674D0B003D4D0B0049
:1061AC00F1500B002F4D0B00014D0B00114D0B004E
:1061BC00614D0B00214D0B00F94C0B000000000051
:1061CC0000000000094E0B00F94D0B00FB4D0B00BD
:1061DC00000000000000000087500B007D500B00F9
:1061EC0073500B0029500B0067500B005B500B00D9
:1061FC00414B0B00494B0B004F500B0047500B0011
:10620C003D500B0033500B00794B0B0025592D25BD
:10621C006D2D25645425483A254D3A2553257A0091
:10622C0061736374696D650061707000000000003B
:10623C000000000095510B0001520B00D9510B00CE
:10624C00F1500B00A9510B00C5510B00B7510B00BD
:10625C00D3510B0097510B009B510B0000081018E9
:10626C0020283038000000000000000013540B0000
:10627C0009540B00FF530B00F5530B00E9530B00B3
:10628C00DD530B00414B0B00494B0B00D1530B0062
:10629C00C9530B00BF530B00B5530B00794B0B00CC
:1062AC00005245454E54206D616C6C6F63207375C4
:1062BC0063636565646564002F6D6E742F776F7210
:1062CC006B73706163652F776F726B73706163654D
:1062DC002F4743432D31302D706970656C696E65A5
:1062EC002F6A656E6B696E732D4743432D31302DCC
:1062FC00706970656C696E652D34385F3230323080
:10630C00313132345F313630363138303634312F2A
:10631C007372632F6E65776C69622F6E65776C692B
:10632C00622F6C6962632F7374646C69622F726183
:10633C006E642E6300000000A9450B00514C0B004D
:10634C0091500B00C1500B00CD500B00E1500B00D5
:10635C0085510B0039520B001D540B00000000003E
:04636C00000000002D
:10637000040000001400000003000000474E550018
:10638000A5CC1B7DB368866E4D5F64EA2292AE8F0A
:046390002346227707
:046394000000000005
:106398002C620B00C4E50320000000000000000090
:1063A80000000000000000000000000000000000E5
:1063B80000000000000000000000000000000000D5
:1063C80000000000000000000000000000000000C5
:1063D80000000000000000000000000000000000B5
:1063E80000000000000000000000000000000000A5
:0C63F8000000000000000000ECE70320A3
:10640400FFFFFFFF00000102030405060708090A55
:106414000B0C0D0E0F101112131415161718191A50
:086424001B1C1D1E1F20280097
:04642C007856341258
:04000003B000401CED
:00000001FF
