:02000002B0004C
:1040000000400B00D87E0B00000006000D000502EA
:084010000401A50F00000000EF
:04401800B4770B006E
:10401C0009480A49884208B505D0094A824202D0AB
:10402C00121A03F0DFFA0748074A0021121A03F0AC
:10403C0001FB014808BD00BFFCE40320387E0B00E7
:10404C0074E5032074E50320EDE7032070B5074EFB
:10405C00074C01F0D9FBA41BA4080025AC4200D1ED
:10406C0070BD56F8043B98470135F7E7D87D0B0037
:10407C00047E0B0000F016B808B500F021F8BDE87E
:10408C00084001F079BB01F0A9B801F0A7B801F024
:10409C00ADB80078B0FA80F0400970470123037086
:1040AC007047000008B5054800231A4619464068B9
:1040BC0001F030F8BDE8084000F06EB9A0E603202E
:1040CC004CF2503001F032BB0021012001F06AB8F3
:1040DC0070B504460D4614300E49164603F005F82B
:1040EC000C4904F1240003F000F801220023C4E978
:1040FC000D234FF0FF33E36340F20713A4F8423073
:10410C0084F8405084F84160E800FFF7BEFF20605F
:10411C00204670BD977A0B00002310B51C4690F812
:10412C0040105A1CDBB2B3EBC10F03DA0168CC545C
:10413C001346F4E710BD02F00702CB08C2F10702E8
:10414C0002EBC3020068C943012301F0070103FA23
:10415C0001F1835C194381547047000013B50B4C7B
:10416C002178BFF35B8F11F001010BD12046019137
:10417C00FFF78FFF019928B1054802F087FE204612
:10418C00FFF78CFF024802B010BD00BF74E503209E
:10419C0078E503202DE9F341051D04460E469046B3
:1041AC00002190F84020019228461F4603F042FA65
:1041BC00019A002104F10C0003F03CFAA1196FF0F4
:1041CC00030681F804800F7394F84100002103F07A
:1041DC00C0F8361B94F8402073199A420FDD15F87D
:1041EC00011B0191FFF7BAFF019902F0EFFEE9798B
:1041FC000191FFF7B3FF019902F0E8FEEAE794F8AA
:10420C004100012102B0BDE8F04103F0A2B837B57E
:10421C000121044690F8410003F08AF8FFF79EFF55
:10422C0002F03EFEFFF79AFF002102F04DFEFFF771
:10423C0095FF302102F0A4FE002594F84030E9B23D
:10424C008B421FD907230B2220460191FFF7A2FFB7
:10425C000199002309222046FFF79CFF01990023B6
:10426C000F222046FFF796FF019900230A222046D1
:10427C00FFF790FF019901230C222046FFF78AFFDC
:10428C000135DAE703B030BDF8B504460E461746E3
:10429C00002594F84030E9B28B4206D93B463246B1
:1042AC002046FFF777FF0135F3E7F8BD0A460A21F0
:1042BC00FFF7EABF38B505460023D9B25C1C95F868
:1042CC004030B1EBC30F0ADA2B6801F007025B5CDC
:1042DC000132C9082846FFF75DFF2346EDE738BDDC
:1042EC0010B5012303748368044643B1C068984732
:1042FC00012363740020BDE8104000F0E7BD0068A6
:10430C000028F5D083680BB903F040F8C368EEE7DA
:10431C002DE9F34104460E4614201D4990461F46D4
:10432C0003F030F830B10025C0E90055C0E9025562
:10433C0005744574206098B1099B9DF82020C0E954
:10434C0002873146CDE90003124B043000F03EFDEC
:10435C0030B923681B7CBBB9012000F053FEF8E791
:10436C002668002323607EB135684DB1AB681BB164
:10437C00032229462846984710212846FFF787FE36
:10438C0014213046FFF783FE204602B0BDE8F081D1
:10439C004C7C0B00ED420B00F0B599B01349482250
:1043AC0006A803F01FF900F0DFF800F0A5FA00F002
:1043BC0037F806AC03252268E168A368059204204F
:1043CC00D4E9047604910393FFF75DFE38B1F6B29D
:1043DC00DDE90412039B01970096FFF799FF013D5D
:1043EC0004F11804E7D119B0F0BD00BF10780B0030
:1043FC000EB400B58CB00DAA4FF0200C52F8041B73
:10440C000392CDE900120023016804AA1E20CDE915
:10441C0004C300F047FE0CB05DF804EB03B070472A
:10442C0008B5102204210C4800F024F90B4B0C4960
:10443C00186002460B48FFF7DBFF0B48FFF7E7FE5F
:10444C0009480F21FFF732FF0748FFF765FEBDE86B
:10445C0008400548FFF72EBF01E50320FCE40320CC
:10446C0058780B00E4E6032084E5032070B50F4870
:10447C000F4C0E4EFFF750FE0025E9B22278304665
:10448C000135FFF758FE3F2DF7D123680748072B5E
:10449C0003F101020ABF002322602360FFF70AFF29
:1044AC00BDE87040322001F041B900BF84E5032023
:1044BC0080E5032070B50E480E4C0D4EFFF72CFE18
:1044CC000025E9B2227830460135FFF734FE3F2D46
:1044DC00F7D123685A1E43B122600548FFF7EAFE64
:1044EC00BDE87040322001F021B907232360F4E7C6
:1044FC0084E5032080E5032007B5144C144D154EBC
:10450C00206800F001F970B12168684600F012F9DA
:10451C009DF804302B70042B05D13046FFF7FCFDC1
:10452C003046FFF7C7FE2B78043B032BE8D8DFE8B7
:10453C0003F008020508FFF799FFE1E7FFF7BAFF60
:10454C00DEE7642001F0F2F8DAE700BFFCE40320B8
:10455C0000E5032084E5032002480E220421FFF726
:10456C00B7BD00BF84E5032008B520220023082135
:10457C00094800F093FC0C2000F030FE074B18604B
:10458C00074B08480022C3E900229A6000F056FC51
:10459C00054B01221A7008BDC8E50320ECE5032089
:1045AC00E0E50320DCE50320D8E503202DE9F74FF7
:1045BC001B4F1C481C4E0068DFF8708000234FF026
:1045CC00FF32694600F07AFC306800F03FFC0024B2
:1045DC00D8F80030A3421EDDDFF854A0DFF854B049
:1045EC004FEA840900255AF82430AB4211DD3B68B0
:1045FC0053F809305A5D9DF804309A4207D15BF8A4
:10460C00240000234FF0FF32694600F04FFC0135C7
:10461C00E9E70134DCE7306800F020FCC9E700BFB3
:10462C00ECE50320C8E50320DCE50320F0E50320DE
:10463C00E0E50320CCE5032007B50C4B1B788BB1D0
:10464C008DF804000A480091006800234FF0FF32F7
:10465C00694600F02BFC003818BF0120404203B023
:10466C005DF804FB4FF0FF30F9E700BFD8E50320FD
:10467C00C8E503202DE9F3471D4B01921B78074633
:10468C000D468BB3DFF87C801A4ED8F800001A4C1C
:10469C0000F0DCFB3068019A0023082104EB800059
:1046AC00164C00F0FBFB2846D6F800A0D4F800907E
:1046BC0000F094FD49F82A0020680023AB423468CE
:1046CC0005DA50F82420F95CD1540133F6E70C4B91
:1046DC00D8F8000043F82450631C336000F0BEFB94
:1046EC00204602B0BDE8F0874FF0FF34F8E700BF7A
:1046FC00D8E50320F0E50320CCE50320ECE503200E
:10470C00E0E50320DCE5032013B5084B04461878DC
:10471C0050B10748002350F824001A46694600F0AF
:10472C00E5FBB0FA80F0400902B010BDD8E50320DB
:10473C00CCE5032038B5094A127804460023C4E9B5
:10474C00003308463AB1064D4FF0FF3255F82000C1
:10475C00214600F0B3FB204638BD00BFD8E503204E
:10476C00CCE503201FB5002102A801F099F802A89E
:10477C0001F0EAF8002201A905488DED010A01F0CB
:10478C003FFC02A801F09CF805B05DF804FB00BFEB
:10479C0044E60320436913B183690C301847704712
:1047AC0013B500210446084600F020FB00232046E8
:1047BC0001A9019300F032FB019C0CB10123237180
:1047CC000021012000F012FB2CB1236820469B68CD
:1047DC0098470023237102B010BD10B5044679B17F
:1047EC000378722B03D100210520FFF725FF2378D6
:1047FC006C2B05D1BDE8104000210620FFF71CBF33
:10480C0010BD012A02D1016000207047022A04BFAA
:10481C000B680360F8E70368184784B0F0B589B0FB
:10482C000FAC84E80E0006460FCC03AD0FC5236811
:10483C009DF850702B6003A801F0A6FA88B903A864
:10484C0001F0BEFA0097ADF80A0002230DF10A023E
:10485C000321304601F09AFE09B0BDE8F04004B0E7
:10486C00704703A801F0AEFA009702461023072107
:10487C00EFE710B58368044613B10322014698474D
:10488C00204610BD37B5134B036004468068C8B191
:10489C0000256FF00043CDE9003502212B462A4656
:1048AC0000F0C4FAA068294600F018FB237903F045
:1048BC00FF0513B100F092FAF8E7A068294600F062
:1048CC00A5FAA56004F10C00FFF7D3FF204603B056
:1048DC0030BD00BFE8780B0010B50446FFF7D2FFDF
:1048EC0020461C21FFF7D3FB204610BD08B540F62F
:1048FC00B83000F01BFFFAE730B589B001F042FC8C
:10490C0001F08AFC01F03EFC294A2A4D014605A81B
:10491C0002F042F905A801F01EFD01F033FC264A15
:10492C00014605A802F038F905A801F014FD01F0C4
:10493C0029FC224A014605A802F02EF905A801F02F
:10494C000AFD05A801F02DFE00241D4B0294D3E9AD
:10495C0003018DE8030005A80ECBFFF75EFF194B92
:10496C000294D3E903018DE8030005A80ECBFFF7F1
:10497C0054FF01F007FC224605A901F097FCA8683A
:10498C0030B1CDE9004423462246022100F04EFA14
:10499C00A86840B100236FF00042CDE9002319460E
:1049AC001A4600F043FA059800F020FC09B030BD1F
:1049BC0070E603204CE6032068E6032044E603205F
:1049CC00F4E5032008E6032082B0F0B58FB015ADF6
:1049DC0015930023C0E90033064694460F460FCDCD
:1049EC0004AC0FC42B6823601AAD0FCD09AC0FC4F7
:1049FC002B682360209B02931F9B019309AB0093B0
:104A0C00304604AB6246394601F09CFF30460FB08D
:104A1C00BDE8F04002B070472DE9F043474DDFF898
:104A2C006481DFF86491464995B0284601F04AFA52
:104A3C0044494046002401F045FA4349484601F0F8
:104A4C0041FACDE909442E460FCE10270DEB070C89
:104A5C00ACE80F003368CCF8003009F104030FCB3D
:104A6C008DE80F00D9F80030384939483A46FFF73D
:104A7C00ABFF384B0A9409930FCD0DEB070CACE848
:104A8C000F003368CCF8003008F104030FCB8DE82D
:104A9C000F00314DD8F80030304931484FF0040246
:104AAC00FFF792FF0DF13C0841F60F01284601F08B
:104ABC0048F942F61921404601F043F9CDE9094481
:104ACC000FCD0DEB07060FC62B68336014AB13E943
:104ADC000F008DE80F000F9B224923483A46FFF741
:104AEC0073FF224B0F9398E80300214B214A1A6065
:104AFC000DAD03F10C0285E8030092E8030088E891
:104B0C00030095E8030082E803001B4A5A619A6986
:104B1C0012921A4A9A611C719C60194A119440F6BF
:104B2C00B83103F10800CDE9004400F067F94046C4
:104B3C00FFF79FFE15B0BDE8F08300BFF4E503203E
:104B4C0067780B008C780B00B1780B00D6780B00D3
:104B5C0070E60320E7470B0008E60320D9780B002A
:104B6C0068E60320DC780B0044E6032071470B0059
:104B7C004CE60320E8780B000F480B0023480B0091
:104B8C00AD470B001CE6032030E6032008B5024BB2
:104B9C001B681B68019308BD4C02030008B5024B4F
:104BAC001B681B69019308BD4C02030008B5024B3E
:104BBC001B685B69019308BD4C02030008B5024BEE
:104BCC001B689B69019308BD4C02030008B5024B9E
:104BDC001B68DB69019308BD4C02030008B5024B4E
:104BEC001B681B6A019308BD4C02030008B5024BFD
:104BFC001B689B69019308BD2802030008B5024B92
:104C0C001B68DB69019308BD2802030008B5024B41
:104C1C001B681B6A019308BD2802030008B5024BF0
:104C2C001B685B6A019308BD2802030008B5024BA0
:104C3C001B689B6A019308BD2802030008B5024B50
:104C4C001B68DB6A019308BD2802030008B5024B00
:104C5C001B681B6B019308BD2802030008B5024BAF
:104C6C001B685B6B019308BD2802030008B5024B5F
:104C7C001B681B6C019308BD2802030008B5024B8E
:104C8C001B689B6C019308BD2802030008B5024BFE
:104C9C001B68DB6C019308BD2802030008B5024BAE
:104CAC001B681B6D019308BD2802030008B5024B5D
:104CBC001B681B68019308BD3002030008B5024B4A
:104CCC001B68DB68019308BD3002030008B5024B7A
:104CDC001B681B69019308BD3002030008B5024B29
:104CEC001B685B69019308BD3002030008B5024BD9
:104CFC001B68DB69019308BD3002030008B5024B49
:104D0C001B681B6A019308BD3002030008B5024BF7
:104D1C001B685B6A019308BD3002030008B5024BA7
:104D2C001B681B6C019308BD3002030008B5024BD5
:104D3C001B685B6C019308BD3002030008B5024B85
:104D4C001B68DB68019308BD3C02030008B5024BED
:104D5C001B681B69019308BD3C02030008B5024B9C
:104D6C001B685B69019308BD3C02030008B5024B4C
:104D7C001B689B69019308BD3C02030008B5024BFC
:104D8C001B68DB69019308BD3C02030008B5024BAC
:104D9C001B681B6A019308BD3C02030008B5024B5B
:104DAC001B689B6A019308BD3C02030008B5024BCB
:104DBC001B681B6C019308BD3C02030008B5024B39
:104DCC001B685B69019308BD6402030008B5024BC4
:104DDC001B685B68019308BD4802030008B5024BD1
:104DEC001B68DB68019308BD4802030008B5024B41
:104DFC001B68DB69019308BD4802030008B5024B30
:104E0C001B681B6A019308BD4802030008B5024BDE
:104E1C001B685B6A019308BD4802030008B5024B8E
:104E2C001B689B6A019308BD4802030008B5024B3E
:104E3C001B68DB6A019308BD4802030008B5024BEE
:104E4C001B681B6B019308BD4802030008B5024B9D
:104E5C001B689B6B019308BD4802030008B5024B0D
:104E6C001B681B6C019308BD4802030008B5024B7C
:104E7C001B685B6C019308BD4802030008B5024B2C
:104E8C001B68DB6C019308BD4802030008B5024B9C
:104E9C001B685B6D019308BD4802030008B5024B0B
:104EAC001B68DB6D019308BD4802030008B5024B7B
:104EBC001B685B6E019308BD4802030008B5024BEA
:104ECC001B689B6E019308BD4802030008B5024B9A
:104EDC001B68DB6E019308BD4802030008B5024B4A
:104EEC001B681B6F019308BD4802030008B5034BF8
:104EFC001B68D3F88C30019308BD000048020300F6
:104F0C0008B5024B1B689B68019308BD780203002F
:104F1C0008B5024B1B681B6D019308BD780203009A
:104F2C0008B5024B1B689B6D019308BD780203000A
:104F3C0008B5024B1B681B6E019308BD7802030079
:104F4C0008B5034B1B68D3F89830019308BD0000DB
:104F5C007802030008B5034B1B68D3F8A830019303
:104F6C0008BD00007802030008B5034B1B68D3F89A
:104F7C00B430019308BD00007802030008B5034B60
:104F8C001B68D3F8D830019308BD000078020300E9
:104F9C0008B5034B1B68D3F8DC30019308BD000047
:104FAC007802030008B5034B1B68D3F8EC3001936F
:104FBC0008BD00007802030008B5034B1B68D3F84A
:104FCC00F030019308BD00007802030008B5034BD4
:104FDC001B68D3F80031019308BD00007802030070
:104FEC0008B5034B1B68D3F80431019308BD0000CE
:104FFC007802030008B5024B1B685B68019308BD7F
:10500C001802030008B5024B1B689B68019308BD8E
:10501C001802030008B5024B1B68DB68019308BD3E
:10502C001802030008B5024B1B685B69019308BDAD
:10503C001802030008B5024B1B689B68019308BD5E
:10504C002C02030008B5024B1B68DB68019308BDFA
:10505C002C02030008B5024B1B681B69019308BDA9
:10506C002C02030008B5024B1B689B68019308BD1A
:10507C006802030008B5024B1B68DB68019308BD8E
:10508C006802030008B5024B1B685B6B019308BDFB
:10509C006002030008B5024B1B681B6D019308BD31
:1050AC006002030008B5024B1B685B6D019308BDE1
:1050BC006002030008B5024B1B68DB6B019308BD53
:1050CC004402030008B5024B1B685B68019308BDE2
:1050DC004002030008B5024B1B689B68019308BD96
:1050EC004002030008B5024B1B68DB68019308BD46
:1050FC004002030008B5024B1B681B69019308BDF5
:10510C004002030008B5024B1B685B69019308BDA4
:10511C004002030008B5024B1B689B69019308BD54
:10512C004002030008B5024B1B68DB69019308BD04
:10513C004002030008B5024B1B681B6A019308BDB3
:10514C004002030008B5024B1B681B6B019308BDA2
:10515C004002030008B5024B1B685B6B019308BD52
:10516C004002030008B5024B1B681B6C019308BD81
:10517C004002030008B5024B1B685B6C019308BD31
:10518C004002030008B5024B1B685B68019308BD25
:10519C002002030008B5024B1B685B69019308BD34
:1051AC002002030008B5024B1B68DB6A019308BDA3
:1051BC002002030008B5034B1B68D3F88830019319
:1051CC0008BD00002002030008B5034B1B68D3F890
:1051DC009430019308BD00002002030008B5024B77
:1051EC001B681B68019308BD1C02030008B5024B29
:1051FC001B685B68019308BD1C02030008B5024BD9
:10520C001B689B68019308BD1C02030008B5024B88
:10521C001B68DB6A019308BD1C02030008B5024B36
:10522C001B681B6C019308BD1C02030008B5024BE4
:10523C001B685B6C019308BD1C02030010B543682E
:10524C00013B0446436063B903689B689847A368B5
:10525C00013BA3602BB923682046DB68BDE81040F6
:10526C00184710BD10B50446006808B1FFF7E6FFFB
:10527C00204610BD002340681A46FFF723BF406844
:10528C0000220221FFF72EBF002240681146FFF7D3
:10529C0021BF002240681146FFF72CBF0023406855
:1052AC001A461946FFF72EBF002340681A461946C6
:1052BC00FFF730BF40680021FFF754BF4068002162
:1052CC00FFF758BF4068002281F00101FFF72ABFA9
:1052DC0040680022FFF736BF002240681146FFF7F6
:1052EC0039BF002240681146FFF724BF2DE9F04377
:1052FC0095B014460D46074600F0C8F900211C2253
:10530C000DA8009102F096F940230C9320466B46B1
:10531C000CAA0021FFF7AEFE044600284BD1024632
:10532C0001216868FFF7E6FE022180462246686884
:10533C00FFF7E0FE009E81462146002E3BD000295F
:10534C0039D17368022B03D00A2B11D0F669F4E71C
:10535C00B8F1000FFAD0716906A8043107AD00F05E
:10536C00C3F90FCD3C1D0FC42B6823704146EDE7EC
:10537C00B9F1000FEAD07469102201A802F05AF9B1
:10538C0006238DF8143001AD04F1080318341868A5
:10539C0059682A4603C20833A3421546F7D101A91E
:1053AC0006A807AD00F080F90FCD3C1D0FC42B688B
:1053BC0023704946CAE70098FFF754FE384615B0EB
:1053CC00BDE8F083024B034A1A6000225A60704712
:1053DC0078E60320FC780B007047F8B506461546B6
:1053EC000C468F18BC4206D0336814F8011B9B681E
:1053FC0030469847F6E72846F8BD007C0022FFF7B8
:10540C0005BC007C0021FFF709BC007C0021FFF7E4
:10541C000DBC007C0021FFF711BC007C0021FFF7C4
:10542C0015BC10B514210446FEF731FE204610BD04
:10543C0038B5044615464FF47A730022C4E90123AB
:10544C00094B2174084623602946FFF70FFCBF3037
:10545C0008D16B69DB0705D56868FFF7C7FEE868FC
:10546C00FFF7C4FE204638BD40790B007FB5002203
:10547C001423CDE90122ADF804300B788DF80830F7
:10548C004B680393CB680493007C0B7A059301A9BA
:10549C00FFF704FC07B05DF804FB7FB50023CDE9F2
:1054AC0001334A6803921423CA68ADF804300B78B0
:1054BC0004920A7A0592007C8DF8083001AA1946EC
:1054CC00FFF794FB07B05DF804FB007C0022FFF7AC
:1054DC0095BB08B50021007CFFF7D0FBB0FA80F03B
:1054EC00400908BD08B50021007CFFF7CFFBB0FADE
:1054FC0080F0400908BD38B50D1E0446006803DD78
:10550C00FFF77CFE18B938BDFFF770FE0020206055
:10551C00A5600120F7E7417470477047704708B5E4
:10552C000021007CFFF74AFB40EAE07008BD08B59B
:10553C000121007CFFF742FB40EAE07008BD08B592
:10554C00007CFFF733FB20EAE07008BD08B5007C57
:10555C00FFF724FB20EAE07008BD13B50446007C7D
:10556C000191FFF723FB0028019901DC607C20B13D
:10557C00207CFFF72BFB20EAE07002B010BD007C12
:10558C00FFF72CBB10B514210446FEF780FD204616
:10559C0010BD000010B54FF47A7304460846002184
:1055AC00C4E90113044B2360012320746374114676
:1055BC00FFF7ECFA204610BD68790B0010B51422E9
:1055CC000446002102F036F8204610BD10B50F4CF1
:1055DC0088B003A8FFF7F2FF2178BFF35B8F11F0BF
:1055EC0001010FD120460191FEF753FD019948B1FD
:1055FC0003AA0748FFF7CEFF2046FEF74FFD0548EC
:10560C0001F0DAFF024808B010BD00BF80E60320AD
:10561C0084E6032027550B00704710B5182104466B
:10562C00FEF735FD204610BDF0B5037D062B8DB081
:10563C000E4600F104074FF0000412D000F10805EB
:10564C0015F8011D0A22304600F029FAAF42044435
:10565C0019D0002CF4D02E21304600F01DFA044451
:10566C00EEE72F236A4639460A208DF80040FFF7F3
:10567C00A5FB684602F01EF833680246DB686946F3
:10568C0030469847044620460DB0F0BD10B5054B8A
:10569C000446112240F8043B002101F0CBFF2046C8
:1056AC0010BD00BF98790B000346074A10B543F8AC
:1056BC00042B01F1100251F8044B43F8044B9142B6
:1056CC00F9D10A781A7010BD98790B0010B59DF8B5
:1056DC00084044EA032343EA024242EA01610423FC
:1056EC004160037510BD000007B5064B0360CB7815
:1056FC0000938B784A780978FFF7E8FF03B05DF8E0
:10570C0004FB00BF98790B0013B50B460246D0E999
:10571C0000016C4684E8030093E8030082E8030070
:10572C0094E8030083E8030002B010BD0021FFF7EA
:10573C0031BD0000014B1860704700BF0CE5032021
:10574C0008B50B4B43B1FFF741FF03681B69984742
:10575C00002801DDAFF30080064B43B101F086FD5C
:10576C0003681B699847002801DDAFF3008008BD72
:10577C00000000000000000008B5FFF7E1FFFFF794
:10578C0051FC014B186008BD40E703200548064A50
:10579C00064908B5121A01F025FF054B054A1A6097
:1057AC0008BD00BF00F4032004F40320347E0B007A
:1057BC0000F403201E1C279A07B5002300931A46F9
:1057CC006FF07701FFF700FD03B05DF804FB0000FC
:1057DC0007B543880A2B08D0502B0BD1094B1B68FB
:1057EC004BB103B05DF804EB1847FFF7E5FF03B0CE
:1057FC005DF804FB002300931A466FF07701FFF766
:10580C00E3FCF4E79CE6032010B512480021FFF7F7
:10581C000DFD114B1A68114B9A42114B0CBF012212
:10582C0000221A7001D0FFF7B1FFFFF7E3FB04462B
:10583C0001F008FF0B4B13B12046AFF300800021A1
:10584C000848FFF737FCBDE8104007480021FFF778
:10585C00B1BC00BF41570B0000F403201E1C279A5B
:10586C0098E6032000000000DD570B00090941EA0F
:10587C00001107EE901A9FED030AF8EEE77A87EE17
:10588C00800A7047000048440068FFF722BE10B53C
:10589C000446016002710AB1FFF7F6FF204610BD05
:1058AC0013B50446019101F0A1FC019A0146204672
:1058BC00FFF7EDFF204602B010BD0068FFF712BEE7
:1058CC0010B5037904460BB1FFF7F7FF204610BD66
:1058DC002DE9FF4104460D4617461E46FFF7D4FF3F
:1058EC0036220023CDE9002320680A234FF001085B
:1058FC006946CDE90283FFF7D0FD2068036829468D
:10590C009B68984720684146FFF7DFFD054640B18C
:10591C006FF09F052046FFF7D0FF284604B0BDE886
:10592C00F0810223206801936946FFF79FFD02284E
:10593C00EED1206803685B6998473870206803686B
:10594C005B6998473070E5E707B500238DF80630A2
:10595C008DF807300DF106020DF107030221FFF758
:10596C00B7FF40B99DF807109DF8060003B05DF82D
:10597C0004EBFFF77BBFBFEE000A03B05DF804FB3E
:10598C00002240681146FFF7B5BB00224068114663
:10599C00FFF7D0BB002240681146FFF7DBBB406825
:1059AC000022FFF7CFBB4068002281F00101FFF716
:1059BC00B9BB002340681A461946FFF7ABBB00235E
:1059CC0040681A461946FFF79DBB002240681146F5
:1059DC00FFF780BB406800220221FFF783BB002346
:1059EC0040681A46FFF76EBB084B10B528242246B8
:1059FC001846002101F01EFE054B04804FF0FF32CB
:105A0C00426004225A60034A1A6010BDA8E60320C3
:105A1C00A0E60320AC790B00014B00229A60704782
:105A2C00D0E60320024B1A68024B1A60704700BF85
:105A3C0008E50320E0E60320014B024A1A60704798
:105A4C00E4E60320FC790B00F8B506460D468F18EA
:105A5C000024BD420CD0336815F8011B9B683046FE
:105A6C009847031E01DB1C44F3E7002C08BF1C46BF
:105A7C002046F8BD13B50446084659B1019101F012
:105A8C0019FE23680199DB680246204602B0BDE886
:105A9C001040184702B010BD03689B68184730B51A
:105AAC008BB00023012A8DF8243098BF0A2209AC50
:105ABC000D46B1FBF2F101FB125303F0FF03092B6E
:105ACC0094BF30333733DBB2AA4204F8013DEFD92F
:105ADC002146FFF7CFFF0BB030BD704770477047C2
:105AEC0070470000064B994210B500F10C0405D02C
:105AFC00084601F04FFC002808BF0024204610BDCA
:105B0C0030790B00064B994210B500F10C0405D00E
:105B1C00084601F03FFC002808BF0024204610BDB9
:105B2C0030790B00064B994210B500F10C0405D0EE
:105B3C00084601F02FFC002808BF0024204610BDA9
:105B4C0030790B0010B568210446FEF7A0FA204608
:105B5C0010BD10B528210446FEF799FA204610BD59
:105B6C0010B530210446FEF792FA204610BD68218C
:105B7C00FEF78DBA2821FEF78ABA3021FEF787BAD4
:105B8C00F0B50025EC1C8C420DD86E1C445D875D75
:105B9C00974205D12644B14205D31D60601CF0BD6F
:105BAC0001342544EEE70020F9E70000024A0349DE
:105BBC000A20FFF767BA00BF21500B00007A0B00D8
:105BCC0030B40D4611461A46036809682868D3E9B3
:105BDC000043A44630BC6047012A38B5044602D1C4
:105BEC000B68236003E0022A03D0032A0DD00020A7
:105BFC0038BD08200D68FEF746FA03460028F0D0A1
:105C0C0095E8030083E80300EBE700680028EED07A
:105C1C000821FEF73CFAEAE710B504465830FEF7C7
:105C2C0028FE04F14800BDE8104001F013BAA0F1C1
:105C3C003003DAB2092A01D818467047A0F1610383
:105C4C00052B01D857387047A0F14103052B94BFA1
:105C5C0037384FF0FF30704710B500230370044BFA
:105C6C0004461868FFF70AF901232370204610BD7B
:105C7C00F0E6032010B5037804461BB1024B1868FC
:105C8C00FFF704F9204610BDF0E6032082B003466E
:105C9C00086849686A4603C26A4603CA186018460F
:105CAC00596002B0704708B582798B799A4206D157
:105CBC00062201F087FCB0FA80F0400908BD0020F4
:105CCC00FCE74FF0FF33036083800020704708B57A
:105CDC000246002101604160FFF7F3FF917110460D
:105CEC0008BD000010B501230361054B024603F10A
:105CFC00100153F8044B42F8044B8B42F9D110BD00
:105D0C00A67B0B0010B50B460446B1B1012A01F17C
:105D1C0010020AD1014653F8040B41F8040B9342CC
:105D2C00F9D101232361204610BD411E12F8010D4B
:105D3C0001F8010F9A42F9D1F3E7102201F07AFC35
:105D4C00F1E738B504460D46FFF7CCFF002323617D
:105D5C00A581204638BD38B5044615461A46FFF7CE
:105D6C00D1FFA581204638BD08B5026922B98089CA
:105D7C00003818BF012008BD0249102201F022FC96
:105D8C00F6E700BFC67B0B000069704738B50C46C0
:105D9C0014220021054601F04DFC23691BB9A3898F
:105DAC002B80284638BD01232B7421462B4604F149
:105DBC00100251F8040B43F8040B9142F9D1F0E7AF
:105DCC0080897047704708B502690B699A4206D101
:105DDC00102201F0F7FBB0FA80F0400908BD00205A
:105DEC00FCE7000001232DE9F3410361344B0C4621
:105DFC000646024603F1100153F8040B42F8040B5B
:105E0C008B42F9D144B32421204601F05BFC0428D9
:105E1C004FF0000523D1ADF8045001AFA51C06349A
:105E2C0015F8020CFFF703FFB0F1000812DB15F8B0
:105E3C00010CFFF7FCFE00280CDB023540EA0810D1
:105E4C00A54207F8010BEBD19DF8053033739DF893
:105E5C00043073730023336102B0BDE8F0814FF05E
:105E6C0010082421204601F02DFCA84207D84246F8
:105E7C000021304602B0BDE8F04101F0DBBBB8F1C7
:105E8C00000FE9D0605DFFF7D2FE030615D40001C8
:105E9C0008F1FF38C7B206F808702421204601F03B
:105EAC0011FC0135A84208D9605DFFF7C0FE40B275
:105EBC000028A4BF384306F808000135D1E700BF1D
:105ECC00A67B0B0013B504460191FFF70BFF204690
:105EDC000199FFF787FF204602B010BD38B54FF689
:105EEC00FF730025044643800E2229460570057178
:105EFC00063001F09FFB04F11400FFF7F3FE04F1F0
:105F0C002800FFF7EFFE044904F13C0001F0EDF826
:105F1C006565204638BD00BF977A0B0010B5D0E9F7
:105F2C00063203EBC2029342184606D0046824885A
:105F3C008C4203F10803F6D110BD0020FCE70000F1
:105F4C00F0B5064685B01F460D46002950D0002AF4
:105F5C004ED004682378F42A28BFF42243B3237963
:105F6C00980709D5A08903920023FEF7FDFF0028AE
:105F7C00039A03DA05B0F0BD6FF07700346823792B
:105F8C00D90609D5012F07D0A0890023294605B0D1
:105F9C00BDE8F040FFF71AB89B06EBD5022FE9D00D
:105FAC00A0890023294605B0BDE8F040FFF718B8DA
:105FBC0060884FF6FF7188421CD021794E0701D5BD
:105FCC00012F04D10B0709D46FF07700D2E7A18918
:105FDC00009313462A46FEF7DBFFCBE7022FF3D0E4
:105FEC000023A189009313462A46FEF7C7FFC1E799
:105FFC000248BFE76FF0D100BCE700BFF2FEFFFF25
:10600C0037B50C460546F4212046019201F05AFBA7
:10601C00019B02462146284603B0BDE83040FFF7FD
:10602C008FBF00002DE9F0410026066007462820AE
:10603C000C46FEF728F8051E05F10C080FD00123BD
:10604C00C5E90133084B2B604046FFF74BFE0FCCE4
:10605C002E6285F8246046460FC623683360C7E974
:10606C0000853846BDE8F081707B0B0070B50025CB
:10607C00056006463020FEF706F8044688B1012379
:10608C00C0E90133094B03604FF6FF7383810E3077
:10609C00FFF71DFEC4E90655C4E90855C4E90A55C5
:1060AC00A57574600C343460304670BD8C7B0B006D
:1060BC0037B50D46044601A8FFF7CEFD2A68D2F885
:1060CC0002302360D2F80630636001A8FFF7D2FDDE
:1060DC00204603B030BD30B5054687B00C4601A84C
:1060EC00FFF7BAFD2A68236812881B889A420DD1E3
:1060FC00294602A8FFF7DCFF214604A8FFF7D8FFCA
:10610C0004A902A8FFF7CFFD044600B9002401A89A
:10611C00FFF7B0FD204607B030BD000010B50446B7
:10612C006420FDF7B0FF68B10023C0E90033C0E97B
:10613C000233C0E90433C0E906330362C362C363AC
:10614C00C364C365206020B90A4A0B490A20FEF7D4
:10615C0099FF0020FEF7D4FE20B1064A07490A2019
:10616C00FEF790FF216806480022FEF725FF204627
:10617C0010BD00BF21500B00007A0B003E7A0B00C3
:10618C00E1660B0010B50A4C2378BFF35B8FDB077D
:10619C000CD42046FDF77DFF40B10648FFF7BEFF4B
:1061AC002046FDF77BFF044801F006FA014810BDBC
:1061BC00E8E60320F4E60320CD630B0030B503685A
:1061CC00093B012B8DB004460D4611D8FFF7DAFFC1
:1061DC00A1880068FFF7A2FE034658B92022CDE93A
:1061EC0004200B4A00920B4904AA3220FEF752FFFE
:1061FC000DB030BD6A6D002AFAD0D4E9032105F147
:10620C004C00CDE90312AC6D04AA03A9A047EFE73B
:10621C00807A0B00177A0B0008B50020FEF770FE91
:10622C0000EAE07008BD19B90A460846FEF770BED0
:10623C00D1E900010022F9E738B5141E4368054680
:10624C0002DB62189A4200DD5C1A2A6850180119A8
:10625C001A44521A01F0D4F96A68121B6A6038BDEC
:10626C0037B50A4604460D4601ABD0E90001FFF7ED
:10627C0087FC024638B101992046FFF7DDFF29461D
:10628C002046FFF7EDFF03B030BD10B50C4629B921
:10629C000A460846BDE81040FEF742BE01212046E2
:1062AC00FFF7DEFFD4E900010022F3E738B504461E
:1062BC001546FFF7B8FF00280ADB29462046FFF7F2
:1062CC00E4FF002804DBBDE838400020FEF730BEB8
:1062DC0038BD000038B500230446836008200D4605
:1062EC00FDF7D1FE18B12B6803606B684360034B5C
:1062FC00E360034B2060A360204638BDCD5B0B00F0
:10630C00E55B0B000B68036013B15A6801325A60ED
:10631C00704710B551F8043B044640F8043BFFF7B6
:10632C00F1FF23680BB9FFF741FC204610BD10B5F7
:10633C0051F8043B044640F8043BFFF7E3FF2046CA
:10634C0010BD10B551F8043B044640F8043BFFF770
:10635C00D9FF204610BD10B504460430FEF782FF6D
:10636C00204610BD70B5D0E90053044605EBC306BA
:10637C00AE4204D0281DFEF775FF0835F8E72068FB
:10638C00FEF734FF204670BD70B5D0E900530446CB
:10639C0005EBC306AE4204D0281DFEF763FF08359B
:1063AC00F8E72068FEF722FF204670BD10B50446C2
:1063BC002430FFF7E9FF04F11800FFF7D3FF10BDFD
:1063CC0070B5174B1C6854B304F15400FEF751FA26
:1063DC0004F14400FEF74DFA04F13400FEF749FADB
:1063EC0004F12400FEF745FAD4E9065305EBC30685
:1063FC00AE4204D0281DFEF735FF0835F8E7A0693A
:10640C00FEF7F4FE04F10C00FFF7BEFF2046FFF789
:10641C00A9FF20466421BDE87040FDF738BE70BD71
:10642C00F4E6032013B50023D1E90042C1E900339F
:10643C000368009304604368426001A80193FEF76F
:10644C0011FF02B010BD826810B50AB900F09EFFB2
:10645C00BDE81040C368184708B583688B4202DA60
:10646C00FFF749F808BD0120FCE72DE9F0410F4684
:10647C0041681D461944836899420446904612DCD3
:10648C00266862683E44D21B3146701901F0B8F898
:10649C002A464146304601F0A5F863682B446360F8
:1064AC000120BDE8F081FFF726F80028E8D1F8E7D5
:1064BC00F8B50D46D0E901139942044616460BDA9D
:1064CC00276862687919521B481C01F099F87E55AF
:1064DC00636801336360F8BD0131FFF70CF80028E5
:1064EC00EED1F8E70A464168FFF7E2BF2DE9F74322
:1064FC0004461D460F4601AB90460A46D0E9000102
:10650C009DF82890FFF73CFBAE1C63680246B9F17E
:10651C00000F26D128B333441B1AFF2B09D801993D
:10652C002046FFF789FE616820463144FFF794FF4F
:10653C0018B9606803B0BDE8F0836A1C0199D2B247
:10654C002046FFF7B5FF01993A4601312046FFF787
:10655C00AFFF01992B46424602312046FFF785FFDB
:10656C00E7E7F118FF29E4D82046FFF775FF00286C
:10657C00DFD0691CC9B22046FFF7B4FF394620466C
:10658C00FFF7B0FF61682B464246E6E730B49DF852
:10659C0008501AB1029530BCFFF7A8BF406830BC58
:1065AC0070471FB50023C0E90033836006220093B7
:1065BC0001238DF80F2019460DF10F020446FFF749
:1065CC00E5FF204604B010BD8842F8B504460D46E0
:1065DC00164614D9904213D2A2F10806751AA1F1ED
:1065EC0008072C44B74218D01CB131462046FFF79F
:1065FC00A8FE301DFEF736FE083E083CF2E70CD034
:10660C00B5420AD01CB129462046FFF79AFE281D38
:10661C00FEF728FE08350834F2E7F8BDF7B5044656
:10662C0046686846FFF78DFED4E901739F4212DB82
:10663C000137002F29DDF800FEF7D0FD0546F0B13B
:10664C00D4E9001201EBC202FFF7BEFF2068FEF78F
:10665C00CDFD2560A7602368626803EBC60603EBDB
:10666C00C202314606F10800FFF7AEFF1EB16946C3
:10667C003046FFF766FE636801336360012501A8AD
:10668C00FEF7F0FD284603B0F0BD0025DEE7F8B5B7
:10669C00D0E9004305460F4604EBC306A64205D0DD
:1066AC0039462046FFF717FD08B114B9F8BD083478
:1066BC00F4E7201DFEF7D6FDD5E9003204F1080100
:1066CC0003EBC2022046FFF77FFF6B68013B6B6058
:1066DC00ECE700002DE9F04105468EB003A80C460E
:1066EC00FFF7BAFA2E68F31E0D2B3CD8DFE813F037
:1066FC000E0053003B00D1003B003B003B003B0035
:10670C003B009B009B009B009B009B0004A8FFF799
:10671C00ADFC049BAA891A80696804980831023080
:10672C00FFF7B4FA04A906A8FFF70BFE06A904F1BB
:10673C001800FFF773FF054607A8FEF793FD20230B
:10674C000693B5B95D4B5E49009332202B4606AAE1
:10675C000795FEF79FFC049B29461888FEF7F0FB73
:10676C0005A8FEF77FFD03A8FFF784FA0EB0BDE87D
:10677C00F081544A009200235149079306AA012044
:10678C00FEF788FCE36A002BEAD004A904F124008C
:10679C00FFF759FEE4E7A9892046FFF7BFFB064641
:1067AC000028E0D00568D5E906324FF6FF71298044
:1067BC0003EBC2029A4203D053F8080B4180F9E76D
:1067CC00D5E9037307EBC308B84504D0381DFEF7B1
:1067DC0049FD0837F8E700232B61D5E9067307EB71
:1067EC00C308B84504D0381DFEF73CFD0837F8E760
:1067FC000023EB61AB72E36B23B1314604F134003F
:10680C00FFF721FE00232022CDE906232E4A009219
:10681C002B4906AA0120FEF73DFC314604F1180075
:10682C00FFF735FF9FE7A9892046FFF777FB002884
:10683C0099D0E36C002B96D000230D2EADF81630BA
:10684C0001D0102E17D1002369681A4606258DF841
:10685C00153004918DF814200690DDE9040109AB84
:10686C008DF81C60089583E80300236D06A904F1DC
:10687C004400984777E70F2E01BF2B7A696803F025
:10688C00010208250FBFC3F340031A4619461D46E3
:10689C00DDE7A9892046FFF741FB014600283FF4BC
:1068AC0062AFE36D002B3FF45EAF6B68069306AAF4
:1068BC00236E04F15400984755E700BF987A0B00FB
:1068CC00177A0B00BE7A0B00DB7A0B0038B5054645
:1068DC000C46FEF719FFAB68A268AA60A360EB68D0
:1068EC00E268EA60E36038BD70B504468CB00E46D1
:1068FC0001921D46FFF7F2FA2671019904F13C0052
:10690C0000F007FC04F14C06CDB1109B029502A9D6
:10691C0004A80393FFF7DEFC002308A904A80A933C
:10692C00FFF7D4FF314608A8FFF7D0FF08A8FDF702
:10693C00A0FF04A8FDF79DFF20460CB070BD069586
:10694C00EAE700002DE9F04F87B01D46DDE9104362
:10695C0080468B469246129903930022682002913E
:10696C000492FDF790FB061E06F10C0918D00122CB
:10697C003746C6E901220299154A47F8202B039B9A
:10698C0000915A4651464846FFF7AEFF0FCD0FC750
:10699C002B683B600FCC06F134050FC523682B60C8
:1069AC0004A94046CDE90496FFF73CFD05A8FEF787
:1069BC0059FCD8F800303BB9064A07490A2007B001
:1069CC00BDE8F04FFEF75EBB07B0BDE8F08F00BF2F
:1069DC00547B0B0021500B00007A0B008842F8B559
:1069EC0004460D46164614D9904213D2A2F108065D
:1069FC00751AA1F108072C44B74218D01CB13146C6
:106A0C002046FFF794FC301DFEF72CFC083E083C9A
:106A1C00F2E70CD0B5420AD01CB129462046FFF74C
:106A2C0086FC281DFEF71EFC08350834F2E7F8BD7D
:106A3C0070B50E1E054611DDF000FEF7CFFB0446C7
:106A4C0058B1D5E9001201EBC202FFF7C7FF286865
:106A5C00FEF7CCFB2C60AE60012070BD0024F6E785
:106A6C0073B5044645686846FFF761FCD4E9011329
:106A7C00994210DA2368626803EBC50503EBC20286
:106A8C00294605F10800FFF7A9FF8DB963680133AA
:106A9C006360012606E001312046FFF7C9FF064678
:106AAC000028E7D101A8FEF7DDFB304602B070BD2F
:106ABC0069462846FFF73BFCE8E78842F8B50446F0
:106ACC000D46164614D9904213D2A2F10806751A37
:106ADC00A1F108072C44B74218D01CB1314620460E
:106AEC00FFF717FC301DFEF7BDFB083E083CF2E734
:106AFC000CD0B5420AD01CB129462046FFF709FC40
:106B0C00281DFEF7AFFB08350834F2E7F8BD70B569
:106B1C000E1E054611DDF000FEF760FB044658B171
:106B2C00D5E9001201EBC202FFF7C7FF2868FEF798
:106B3C005DFB2C60AE60012070BD0024F6E773B5E0
:106B4C00044645686846FFF7E4FBD4E90113994213
:106B5C0010DA2368626803EBC50503EBC202294611
:106B6C0005F10800FFF7A9FF8DB963680133636075
:106B7C00012606E001312046FFF7C9FF0646002832
:106B8C00E7D101A8FEF76EFB304602B070BD694636
:106B9C002846FFF7BEFBE8E72DE9F04F1746A1B0FA
:106BAC0080460AA80E46FFF757F83C68237953B97C
:106BBC0039464046FFF7ADFB0AA8FFF75BF84046A5
:106BCC0021B0BDE8F08F3368D3E9035305EBC30361
:106BDC00039304F1280A04F1140B039B9D4221D06A
:106BEC00D5F80090584609F11401FFF7ECF8B8B14C
:106BFC0009F128015046FFF7E6F888B12368D9F867
:106C0C000020534033F47F430AD12022CDE91523D1
:106C1C005E4A009215AA5E493220FEF73BFAC7E79E
:106C2C000835DAE75046FFF79FF860B95949012259
:106C3C0015A815ADFFF766F80FCDD446ACE80F00DC
:106C4C002B68CCF800303368D3E9005305EBC30B49
:106C5C005D45A94651466ED055F8080BFFF7B3F8C1
:106C6C000028F5D004F1140A5046FFF77DF888B9D6
:106C7C00494B48491A88013292B21A8015A801234F
:106C8C0015ADFFF768F80FCDD446ACE80F002B68B4
:106C9C00CCF80030414B15932822002116A800F0A7
:106CAC00C9FC514604A8FFF771F804AB18AA0DF102
:106CBC00200C18685968154603C5083363452A46E5
:106CCC00F7D11868286023798DF85830D9F800303E
:106CDC009B8AADF87430E36B1793314B0022A11DE6
:106CEC0015A8CDE91E34FEF75DF900287FF460AFDE
:106CFC0001232370346839460C340DA8FFF709FBC7
:106D0C0020460DA9FFF71BFF04460EA8FEF7AAFAB2
:106D1C00002C7FF44DAF2023CDE90D34214B009393
:106D2C000DAA234677E739464046FFF7F2FA0CA83E
:106D3C00FEF798FA40E70BA8FFF774F9514615A82F
:106D4C00FFF724F80B9A0023143215A90120FEF743
:106D5C0001F90028E7D135680BA90DA8FFF7E7FA70
:106D6C0028460DA9FFF77CFE05460EA8FEF77AFA19
:106D7C00002DD8D032685368126803F10053013BE0
:106D8C000CA802EBC309FEF76DFA6BE7FA7A0B005D
:106D9C00177A0B00B67B0B00ECE6032003002C00EB
:106DAC00C9610B00257B0B00024800230360FEF732
:106DBC005DB800BFF0E6032070474174704708B51A
:106DCC00007CFDF7EBFF20EAE07008BD08B5007C05
:106DDC00FDF7BCFF20EAE07008BD08B5007CFDF7AC
:106DEC00C5FF40EAE07008BD08B5007CFDF7B6FFB2
:106DFC0040EAE07008BD007CFDF7C0BF37B5457CAC
:106E0C0004462DB1207C03B0BDE83040FDF796BFA1
:106E1C00007C0191FDF7C2FF00280199F2DC2846A5
:106E2C0003B030BD10B514210446FDF730F92046EF
:106E3C0010BD000010B54FF47A7304460846114695
:106E4C000022C4E90123044B2360012320746374E2
:106E5C00FDF7ACFF204610BDE07B0B00054B02227A
:106E6C001A60054B054A9A600020C3E90000FEF742
:106E7C0089B900BF04E70320F8E603200000FFFFF8
:106E8C000021FDF753BF0021FDF748BF10B50446A4
:106E9C0008462170FDF72AFF00236360204610BDD1
:106EAC0013B504460078FFF7EEFF58B9207801902F
:106EBC004FF6FF71FDF7FAFE019802B0BDE81040E5
:106ECC00FFF7DEBF02B010BD13B504460078019188
:106EDC00FFF7D9FF019948B920780190FDF7EEFE34
:106EEC00019802B0BDE81040FFF7CABF02B010BD58
:106EFC00400830B51860002418688842E5B206D9FD
:106F0C000134082C02D040081860F5E70725024B25
:106F1C005B5D137030BD00BF087C0B002DE9F041A8
:106F2C0088B000230446007802930E461746FFF7FC
:106F3C00AAFF054600BB94F800800146142203A862
:106F4C0000F078FB0B232A4603A94046ADF80C3021
:106F5C00FDF7DCFE04988DF8075002AB0DF107022B
:106F6C0007FB06F1FFF7C4FF20789DF80710FDF72B
:106F7C00ADFE2078FFF784FF029808B0BDE8F081E1
:106F8C0038B5044600780D46FFF77DFF0346D0B9AF
:106F9C00616899B10C4A12F8010B854202D0013399
:106FAC00082BF8D10133DBB20122D9402046FFF780
:106FBC00B5FF2078BDE83840FFF762BF207829463E
:106FCC00FDF784FEF5E738BD087C0B0008B50078AA
:106FDC00FDF784FEC0B208BD002240681146FEF7E2
:106FEC00A9B8002240681146FEF7B4B840680022E8
:106FFC00FEF7A8B84068002281F00101FEF792B8B4
:10700C00002340681A461946FEF784B800234068EE
:10701C001A461946FEF776B8002240681146FEF76C
:10702C0069B8002240681146FEF754B84068002247
:10703C000221FEF757B8002340681A46FEF742B803
:10704C00024B03225A60024A1A60704708E7032079
:10705C00187C0B0010B504460068FEF7C7F82046F4
:10706C0010BD10B50446006808B1FEF7BFF8002348
:10707C00C4E90133236010BD38B504460D460068E1
:10708C000131FEF7BBF810B1C4E90005012038BD91
:10709C0010B50368044623B143688B4201D3012029
:1070AC0010BD2046FFF7E8FF0028F9D0A368002B9D
:1070BC00F5D122681370F2E737B50D4611460192EF
:1070CC000446FFF7E5FF019A28B92046FFF7C9FFF0
:1070DC00204603B030BDA2602946206800F082FA39
:1070EC002268A3680021D154F2E7002313B5C0E94C
:1070FC00003304468360037341B10846019100F0EC
:10710C00D9FA019902462046FFF7D6FF204602B075
:10711C0010BD13B5044659B10846019100F0CAFAE6
:10712C00019902462046FFF7C7FF204602B010BD6A
:10713C00FFF797FFF9E770477047000038B50A4B27
:10714C0003600123044643610849202000F01CF928
:10715C00202560600549A560284600F015F9C4E9B2
:10716C000305204638BD00BF180001004C7C0B0005
:10717C0038B50A4B036001230446436108492020BB
:10718C0000F002F9202560600549A560284600F052
:10719C00FBF8C4E90305204638BD00BF1800010008
:1071AC004C7C0B0030B50E4D2978BFF35B8F11F082
:1071BC00010487B011D12846FCF76BFF68B1684613
:1071CC00FFF7BCFF6A4621460648FEF731F9284610
:1071DC00FCF764FF044800F0EFF9024807B030BD3B
:1071EC0010E7032018E7032043710B0010B50E4C79
:1071FC002378BFF35B8FDB0786B011D42046FCF7F6
:10720C0048FF68B16846FFF7B3FF6A46012107489B
:10721C00FEF70EF92046FCF741FF054800F0CCF9CB
:10722C00024806B010BD00BF14E703202CE7032072
:10723C0045710B007047000038B5044614252A46EA
:10724C00002100F0F7F925804025074925812846C3
:10725C00258200F099F804496060284600F094F803
:10726C00E060204638BD00BF4C7C0B0030B50E4DA5
:10727C002978BFF35B8F11F0010487B011D1284638
:10728C00FCF707FF68B101A8FFF7D6FF01AA21465A
:10729C000648FFF7CFFD2846FCF700FF044800F036
:1072AC008BF9024807B030BD44E7032048E70320C0
:1072BC0041720B00232813B502D9002002B010BD77
:1072CC00A0F10B03022B1AD8174C2178BFF35B8F5C
:1072DC0011F001010BD120460191FCF7DAFE019966
:1072EC0028B11248FFF7D2FD2046FCF7D7FE0F4B12
:1072FC001878FDF703FD0028DFD10120DEE7012817
:10730C0009D8FFF74FFF0021007CFDF7A7FC80F0A8
:10731C000100C0B2D2E709380128EED8FFF7A6FF6A
:10732C00007CFDF733FDF2E774E5032078E50320DC
:10733C00232838B504460D460AD8FF2908D0FFF794
:10734C00B9FF28B129462046BDE83840FDF772BE8A
:10735C0038BD38B504460D46FDF774FEFF2810D035
:10736C00062804D84D2323FA00F0C30709D420467D
:10737C00FFF7A0FF28B129462046BDE83840FDF7AD
:10738C0069BE38BDFCF77FBEFCF77FBE08B5FDF7C4
:10739C003DFF0000014900F0F9B800BF687C0B000C
:1073AC007FB500241023CDE90234036815469E698D
:1073BC0012686B46CDE90044B0479DF8043003F0E9
:1073CC000603062B03BF009B2B600120204604B054
:1073DC0070BD0098904214BF012006207047000039
:1073EC0010B5034B0360044600F0CDF8204610BDE9
:1073FC00A87C0B0010B50446FFF7F2FF20460821CD
:10740C00FCF745FE204610BD2DE9F0411F46DDE995
:10741C000834DDF8188098450646154607D10799BB
:10742C0000F0B4F818B165710020BDE8F081394660
:10743C00304600F0ABF80028F6D00123C4F80080E9
:10744C002571A371F0E738B515461C4600F09EF87F
:10745C0020B10823E36006232560237138BD73B582
:10746C0005460C4601921E4600F090F850B9032ECA
:10747C0008D82368019A5B692946204602B0BDE80A
:10748C007040184702B070BD10B5034B0360044642
:10749C00FFF7A6FF204610BD087D0B0010B5044673
:1074AC00FFF7F2FF20460C21FCF7F1FD204610BD42
:1074BC00F7B5089F974205460E4614460AD0A868B1
:1074CC0002680897156A31462246AC4603B0BDE8FF
:1074DC00F04060471946019300F058F8019B0028D2
:1074EC00EDD0062003B0F0BD2DE9F14F0D46194645
:1074FC00DDE90A4BDDE90CA681461746984600F0FB
:10750C0045F890B1002D3460377109DB61198A455B
:10751C000CBF06210121B171002001B0BDE8F08F34
:10752C000235F9D10123B371F6E7544506D159461A
:10753C00484600F02BF808B17771EDE7D9F8080050
:10754C000368CDE90CA6CDE90A4BDC693A46434603
:10755C002946A44601B0BDE8F04F60472DE9F04143
:10756C0007460C4615461E46FFF76DFF48B9B8682E
:10757C0003689F692A4633462146BC46BDE8F04164
:10758C006047BDE8F081704700207047814208B524
:10759C000ED0406803782A2B0CD049680B782A2B24
:1075AC0008BF013100F07CF8B0FA80F0400908BD4A
:1075BC000120FCE70020FAE7002301461A46184692
:1075CC0000F08CB810B501390244904201D1002072
:1075DC0005E0037811F8014FA34201D0181B10BD30
:1075EC000130F2E70A44914200F1FF3300D17047B9
:1075FC0010B511F8014B03F8014F9142F9D110BDB0
:10760C00884210B501EB020402D98442234607D804
:10761C00431EA14208D011F8012B03F8012FF8E703
:10762C00024401468A4200D110BD13F8014D02F804
:10763C00014DF7E702440346934200D1704703F82B
:10764C00011BF9E738B5104B1D68AB6B0446B3B999
:10765C001820FDF7C3FD0246A86320B90B4B0C485C
:10766C004221FDF7DBFD0B490B4BC0E900130B4B23
:10767C0083600B23838100210120C2E90401AB6BE1
:10768C0000221C615A6138BD0CE50320417D0B00C2
:10769C00587D0B000E33CDAB34126DE6ECDE0500DD
:1076AC0010F8012B11F8013B012A28BF9A42F7D0A0
:1076BC00D01A7047034613F8012B002AFBD1181A75
:1076CC000138704710B5024601448A42134603D074
:1076DC001C780132002CF8D1181A10BD2DE9F84392
:1076EC00DFF8B8800646D8F800001F460D469146D4
:1076FC0000F056F8254B1C6834B9254C1C60254B02
:10770C0013B11B68C4F8883063681F2B07DDD8F8E9
:10771C00000000F047F84FF0FF30BDE8F8834EB39F
:10772C00D4F8880088B91C4B23B9D8F8000000F0B5
:10773C0038F8F0E74FF48470FDF750FD0028F4D0D2
:10774C000023C0E94033C4F88800636840F82390F4
:10775C0001229A4000EB8301D0F800311343C0F8AA
:10776C000031022EC1F8807002BFD0F804311343EF
:10777C00C0F804316368D8F800005A1C0233626008
:10778C0044F8235000F00EF80020C6E7E8E7032089
:10779C005CE7032000000000E9510B0070E50320BA
:1077AC0070477047704700001D400B0059400B009C
:1077BC0081400B0085400B00000000004576656E93
:1077CC0074206D616E6167656D656E74207468728E
:1077DC0065616400426C7565746F6F746820496EE6
:1077EC007465726661636520546872656164004CEF
:1077FC004544204D617472697820746872656164C7
:10780C0000000000B9450B0075450B00000000009E
:10781C00C8770B000008000014000000F9480B00AA
:10782C0005490B0000000000E0770B000008000089
:10783C001400000005450B002D440B000000000057
:10784C00FB770B0000040000000000006576656EFD
:10785C007473706163653A202564003645343030AA
:10786C003030312D423541332D463339332D4530AF
:10787C0041392D4535304532344443434139450077
:10788C0036453430303030322D423541332D46338D
:10789C0039332D453041392D45353045323444434B
:1078AC00434139450036453430303030332D423584
:1078BC0041332D463339332D453041392D45353043
:1078CC0045323444434341394500747800727800A2
:1078DC0062617400000000000000000091480B0081
:1078EC00E5480B00A1470B00000000000000000061
:1078FC0081520B008B520B0095520B009F520B00C8
:10790C00A9520B00B5520B00C1520B00C9520B000F
:10791C00D1520B00DD520B00E5520B00EF520B0065
:10792C00F9520B00000000000000000000000000F5
:10793C0000000000E5530B002F540B0007540B0004
:10794C00E7530B000F540B0017540B001F540B0084
:10795C0027540B00000000000000000029550B000C
:10796C0091550B0067550B00555A0B0059550B00E0
:10797C002B550B003B550B008B550B004B550B003F
:10798C0023550B00000000000000000035560B00D2
:10799C0025560B0027560B000000000000000000CD
:1079AC00EB590B00E1590B00D7590B008D590B000B
:1079BC00CB590B00BF590B00C1520B00C9520B0025
:1079CC00B3590B00AB590B00A1590B0097590B0085
:1079DC00F9520B0025592D256D2D25645425483A57
:1079EC00254D3A2553257A0061736374696D6500E2
:1079FC0061707000417373657274696F6E46616972
:107A0C006C7572652066616C736500776972696E5E
:107A1C00672E626C650053746172742064697363C1
:107A2C006F766572696E67207365727669636573CC
:107A3C002E00417373657274696F6E4661696C7563
:107A4C0072652068616C5F626C655F737461636BF7
:107A5C005F696E6974286E756C6C70747229203D48
:107A6C003D2053595354454D5F4552524F525F4E32
:107A7C004F4E4500506565722064657669636520DC
:107A8C006973206D697373696E6721004661696C57
:107A9C00656420746F20617070656E64207065651C
:107AAC00722043656E7472616C20646576696365DF
:107ABC002E00436F6E6E656374656420627920439B
:107ACC00656E7472616C206465766963652E004422
:107ADC006973636F6E6E656374656420627920727E
:107AEC00656D6F7465206465766963652E004475F9
:107AFC00706C69636174656420636861726163743E
:107B0C00657269737469632063616E6E6F74206251
:107B1C00652061646465642E004661696C6564204F
:107B2C00746F20617070656E64206C6F63616C2083
:107B3C0063686172616374657269737469632E0042
:107B4C000000000000000000ED5A0B00515B0B0020
:107B5C00255C0B007B5B0B00F15A0B000000000056
:107B6C0000000000E95A0B005F5B0B00EB5A0B00A6
:107B7C00815B0B00115B0B0000000000000000009B
:107B8C00E75A0B006D5B0B00B9630B00875B0B00B6
:107B9C00315B0B00000000000000FB349B5F800099
:107BAC00008000100000000000007BE327747BF8CD
:107BBC0015ACDD49A913000072F5FB349B5F800006
:107BCC000080001000000000000000000000000019
:107BDC0000000000C56D0B00316E0B00096E0B0030
:107BEC00555A0B00D96D0B00F56D0B00E76D0B00B2
:107BFC00036E0B00C76D0B00CB6D0B00000810184B
:107C0C0020283038000000000000000043700B00FA
:107C1C0039700B002F700B0025700B0019700B00C6
:107C2C000D700B00C1520B00C9520B0001700B0000
:107C3C00F96F0B00EF6F0B00E56F0B00F9520B00A7
:107C4C0000537431395F53705F6D616B655F73689E
:107C5C00617265645F74616700000000A87C0B00B2
:107C6C004D7C0B00087D0B007C7C0B002C7D0B00ED
:107C7C004E31305F5F637878616269763131375F9E
:107C8C005F636C6173735F747970655F696E666F47
:107C9C004500000000000000707C0B00ED730B0031
:107CAC0001740B0095750B0095750B006B740B0034
:107CBC00AD730B0053740B0015740B00DF730B00CA
:107CCC00087D0B00D87C0B00707C0B004E31305FB4
:107CDC005F637878616269763132305F5F73695FB8
:107CEC00636C6173735F747970655F696E666F4501
:107CFC000000000000000000CC7C0B0095740B0011
:107D0C00A9740B0095750B0095750B006B740B002B
:107D1C00AD730B0069750B00F5740B00BD740B0093
:107D2C00A87C0B00347D0B00537439747970655F3B
:107D3C00696E666F005245454E54206D616C6C6FD8
:107D4C006320737563636565646564002F6D6E7481
:107D5C002F776F726B73706163652F776F726B73B4
:107D6C00706163652F4743432D31302D7069706509
:107D7C006C696E652F6A656E6B696E732D47434334
:107D8C002D31302D706970656C696E652D34385FDE
:107D9C0032303230313132345F3136303631383086
:107DAC003634312F7372632F6E65776C69622F6E68
:107DBC0065776C69622F6C6962632F7374646C698C
:107DCC00622F72616E642E6300000000D5400B00C0
:107DDC0065450B00254A0B00D1530B00F5590B00E0
:107DEC00255A0B00315A0B00455A0B00B56D0B0090
:107DFC00696E0B004D700B000000000000000000CD
:047E0C000000000072
:107E1000040000001400000003000000474E55005D
:107E200017A3506B4C1AA4C3FB7F7D8BF5868D2462
:047E30009FD90AE4E8
:047E3400000000004A
:107E3800FFFFFFFF0504050607000000F4790B00AB
:107E480010E5032000000000000000000000000012
:107E5800000000000000000000000000000000001A
:107E6800000000000000000000000000000000000A
:107E780000000000000000000000000000000000FA
:107E880000000000000000000000000000000000EA
:107E980000000000000000000000000000000000DA
:087EA80000000000ECE70320DC
:107EB000FFFFFFFF00000102030405060708090A8F
:107EC0000B0C0D0E0F101112131415161718191A8A
:087ED0001B1C1D1E1F202800D1
:047ED8007856341292
:04000003B000401CED
:00000001FF
